{
  "_format": "hh3-artifact-1",
  "contractName": "SwapExamples",
  "sourceName": "contracts/SwapTokens.sol",
  "abi": [
    {
      "inputs": [
        {
          "internalType": "contract ISwapRouter",
          "name": "_swapRouter",
          "type": "address"
        }
      ],
      "stateMutability": "nonpayable",
      "type": "constructor"
    },
    {
      "inputs": [],
      "name": "poolFee",
      "outputs": [
        {
          "internalType": "uint24",
          "name": "",
          "type": "uint24"
        }
      ],
      "stateMutability": "view",
      "type": "function"
    },
    {
      "inputs": [
        {
          "internalType": "address",
          "name": "tokenIn",
          "type": "address"
        },
        {
          "internalType": "address",
          "name": "tokenOut",
          "type": "address"
        },
        {
          "internalType": "address",
          "name": "recipient",
          "type": "address"
        },
        {
          "internalType": "uint256",
          "name": "amountIn",
          "type": "uint256"
        }
      ],
      "name": "swapExactInputSingle",
      "outputs": [
        {
          "internalType": "uint256",
          "name": "amountOut",
          "type": "uint256"
        }
      ],
      "stateMutability": "nonpayable",
      "type": "function"
    },
    {
      "inputs": [
        {
          "internalType": "address",
          "name": "tokenIn",
          "type": "address"
        },
        {
          "internalType": "address",
          "name": "tokenOut",
          "type": "address"
        },
        {
          "internalType": "address",
          "name": "recipient",
          "type": "address"
        },
        {
          "internalType": "uint256",
          "name": "amountOut",
          "type": "uint256"
        },
        {
          "internalType": "uint256",
          "name": "amountInMaximum",
          "type": "uint256"
        }
      ],
      "name": "swapExactOutputSingle",
      "outputs": [
        {
          "internalType": "uint256",
          "name": "amountIn",
          "type": "uint256"
        }
      ],
      "stateMutability": "nonpayable",
      "type": "function"
    },
    {
      "inputs": [],
      "name": "swapRouter",
      "outputs": [
        {
          "internalType": "contract ISwapRouter",
          "name": "",
          "type": "address"
        }
      ],
      "stateMutability": "view",
      "type": "function"
    }
  ],
  "bytecode": "0x60a060405234801561001057600080fd5b506040516109aa3803806109aa83398101604081905261002f91610044565b60601b6001600160601b031916608052610072565b600060208284031215610055578081fd5b81516001600160a01b038116811461006b578182fd5b9392505050565b60805160601c6109036100a76000398060cb528061014a52806101e1528061023852806102b7528061034a52506109036000f3fe608060405234801561001057600080fd5b506004361061004c5760003560e01c80630889ebcb14610051578063089fe6aa1461007a5780639734e0a21461008f578063c31c9c07146100a2575b600080fd5b61006461005f3660046107bf565b6100b7565b60405161007191906108c4565b60405180910390f35b61008261021e565b60405161007191906108b4565b61006461009d366004610775565b610224565b6100aa610348565b604051610071919061088b565b60006100c58685308561036c565b6100f0867f0000000000000000000000000000000000000000000000000000000000000000846104c4565b60408051610100810182526001600160a01b0380891682528781166020830152610bb882840152868116606083015242608083015260a0820186905260c08201859052600060e08301529151631b67c43360e31b815290917f0000000000000000000000000000000000000000000000000000000000000000169063db3e21989061017f90849060040161089f565b602060405180830381600087803b15801561019957600080fd5b505af11580156101ad573d6000803e3d6000fd5b505050506040513d601f19601f820116820180604052508101906101d19190610813565b91508282101561021457610207877f000000000000000000000000000000000000000000000000000000000000000060006104c4565b6102148733848603610612565b5095945050505050565b610bb881565b60006102328584308561036c565b61025d857f0000000000000000000000000000000000000000000000000000000000000000846104c4565b60408051610100810182526001600160a01b0380881682528681166020830152610bb882840152858116606083015242608083015260a08201859052600060c0830181905260e0830152915163414bf38960e01b815290917f0000000000000000000000000000000000000000000000000000000000000000169063414bf389906102ec90849060040161089f565b602060405180830381600087803b15801561030657600080fd5b505af115801561031a573d6000803e3d6000fd5b505050506040513d601f19601f8201168201806040525081019061033e9190610813565b9695505050505050565b7f000000000000000000000000000000000000000000000000000000000000000081565b604080516001600160a01b0385811660248301528481166044830152606480830185905283518084039091018152608490920183526020820180516001600160e01b03166323b872dd60e01b178152925182516000948594938a169392918291908083835b602083106103f05780518252601f1990920191602091820191016103d1565b6001836020036101000a0380198251168184511680821785525050505050509050019150506000604051808303816000865af19150503d8060008114610452576040519150601f19603f3d011682016040523d82523d6000602084013e610457565b606091505b5091509150818015610485575080511580610485575080806020019051602081101561048257600080fd5b50515b6104bc576040805162461bcd60e51b815260206004820152600360248201526229aa2360e91b604482015290519081900360640190fd5b505050505050565b604080516001600160a01b038481166024830152604480830185905283518084039091018152606490920183526020820180516001600160e01b031663095ea7b360e01b1781529251825160009485949389169392918291908083835b602083106105405780518252601f199092019160209182019101610521565b6001836020036101000a0380198251168184511680821785525050505050509050019150506000604051808303816000865af19150503d80600081146105a2576040519150601f19603f3d011682016040523d82523d6000602084013e6105a7565b606091505b50915091508180156105d55750805115806105d557508080602001905160208110156105d257600080fd5b50515b61060b576040805162461bcd60e51b8152602060048201526002602482015261534160f01b604482015290519081900360640190fd5b5050505050565b604080516001600160a01b038481166024830152604480830185905283518084039091018152606490920183526020820180516001600160e01b031663a9059cbb60e01b1781529251825160009485949389169392918291908083835b6020831061068e5780518252601f19909201916020918201910161066f565b6001836020036101000a0380198251168184511680821785525050505050509050019150506000604051808303816000865af19150503d80600081146106f0576040519150601f19603f3d011682016040523d82523d6000602084013e6106f5565b606091505b5091509150818015610723575080511580610723575080806020019051602081101561072057600080fd5b50515b61060b576040805162461bcd60e51b815260206004820152600260248201526114d560f21b604482015290519081900360640190fd5b80356001600160a01b038116811461077057600080fd5b919050565b6000806000806080858703121561078a578384fd5b61079385610759565b93506107a160208601610759565b92506107af60408601610759565b9396929550929360600135925050565b600080600080600060a086880312156107d6578081fd5b6107df86610759565b94506107ed60208701610759565b93506107fb60408701610759565b94979396509394606081013594506080013592915050565b600060208284031215610824578081fd5b5051919050565b80516001600160a01b03908116835260208083015182169084015260408083015162ffffff16908401526060808301518216908401526080808301519084015260a0828101519084015260c0808301519084015260e09182015116910152565b6001600160a01b0391909116815260200190565b61010081016108ae828461082b565b92915050565b62ffffff91909116815260200190565b9081526020019056fea2646970667358221220193d2b6d741020eddd8a64f4ce9c114b4f7725859b0929514fda953f2f88258564736f6c63430007060033",
  "linkReferences": {},
  "deployedLinkReferences": {},
  "immutableReferences": {
    "365": [
      {
        "length": 32,
        "start": 203
      },
      {
        "length": 32,
        "start": 330
      },
      {
        "length": 32,
        "start": 481
      },
      {
        "length": 32,
        "start": 568
      },
      {
        "length": 32,
        "start": 695
      },
      {
        "length": 32,
        "start": 842
      }
    ]
  },
  "inputSourceName": "project/contracts/SwapTokens.sol",
  "buildInfoId": "solc-0_7_6-5f7a491157ad73d94d5acda81c26d1aa5f17ab1e"
}