{
  "_format": "hh3-artifact-1",
  "contractName": "TicketToken",
  "sourceName": "contracts/token.sol",
  "abi": [
    {
      "inputs": [
        {
          "internalType": "string",
          "name": "uri",
          "type": "string"
        },
        {
          "internalType": "address",
          "name": "initialOwner",
          "type": "address"
        }
      ],
      "stateMutability": "nonpayable",
      "type": "constructor"
    },
    {
      "inputs": [
        {
          "internalType": "address",
          "name": "sender",
          "type": "address"
        },
        {
          "internalType": "uint256",
          "name": "balance",
          "type": "uint256"
        },
        {
          "internalType": "uint256",
          "name": "needed",
          "type": "uint256"
        },
        {
          "internalType": "uint256",
          "name": "tokenId",
          "type": "uint256"
        }
      ],
      "name": "ERC1155InsufficientBalance",
      "type": "error"
    },
    {
      "inputs": [
        {
          "internalType": "address",
          "name": "approver",
          "type": "address"
        }
      ],
      "name": "ERC1155InvalidApprover",
      "type": "error"
    },
    {
      "inputs": [
        {
          "internalType": "uint256",
          "name": "idsLength",
          "type": "uint256"
        },
        {
          "internalType": "uint256",
          "name": "valuesLength",
          "type": "uint256"
        }
      ],
      "name": "ERC1155InvalidArrayLength",
      "type": "error"
    },
    {
      "inputs": [
        {
          "internalType": "address",
          "name": "operator",
          "type": "address"
        }
      ],
      "name": "ERC1155InvalidOperator",
      "type": "error"
    },
    {
      "inputs": [
        {
          "internalType": "address",
          "name": "receiver",
          "type": "address"
        }
      ],
      "name": "ERC1155InvalidReceiver",
      "type": "error"
    },
    {
      "inputs": [
        {
          "internalType": "address",
          "name": "sender",
          "type": "address"
        }
      ],
      "name": "ERC1155InvalidSender",
      "type": "error"
    },
    {
      "inputs": [
        {
          "internalType": "address",
          "name": "operator",
          "type": "address"
        },
        {
          "internalType": "address",
          "name": "owner",
          "type": "address"
        }
      ],
      "name": "ERC1155MissingApprovalForAll",
      "type": "error"
    },
    {
      "inputs": [
        {
          "internalType": "address",
          "name": "owner",
          "type": "address"
        }
      ],
      "name": "OwnableInvalidOwner",
      "type": "error"
    },
    {
      "inputs": [
        {
          "internalType": "address",
          "name": "account",
          "type": "address"
        }
      ],
      "name": "OwnableUnauthorizedAccount",
      "type": "error"
    },
    {
      "anonymous": false,
      "inputs": [
        {
          "indexed": true,
          "internalType": "address",
          "name": "account",
          "type": "address"
        },
        {
          "indexed": true,
          "internalType": "address",
          "name": "operator",
          "type": "address"
        },
        {
          "indexed": false,
          "internalType": "bool",
          "name": "approved",
          "type": "bool"
        }
      ],
      "name": "ApprovalForAll",
      "type": "event"
    },
    {
      "anonymous": false,
      "inputs": [
        {
          "indexed": true,
          "internalType": "address",
          "name": "previousOwner",
          "type": "address"
        },
        {
          "indexed": true,
          "internalType": "address",
          "name": "newOwner",
          "type": "address"
        }
      ],
      "name": "OwnershipTransferred",
      "type": "event"
    },
    {
      "anonymous": false,
      "inputs": [
        {
          "indexed": true,
          "internalType": "uint256",
          "name": "tokenId",
          "type": "uint256"
        },
        {
          "indexed": false,
          "internalType": "string",
          "name": "eventName",
          "type": "string"
        },
        {
          "indexed": false,
          "internalType": "string",
          "name": "section",
          "type": "string"
        },
        {
          "indexed": false,
          "internalType": "string",
          "name": "row",
          "type": "string"
        },
        {
          "indexed": false,
          "internalType": "string",
          "name": "seat",
          "type": "string"
        },
        {
          "indexed": false,
          "internalType": "uint256",
          "name": "eventDate",
          "type": "uint256"
        },
        {
          "indexed": false,
          "internalType": "uint256",
          "name": "price",
          "type": "uint256"
        }
      ],
      "name": "TicketCreated",
      "type": "event"
    },
    {
      "anonymous": false,
      "inputs": [
        {
          "indexed": true,
          "internalType": "uint256",
          "name": "tokenId",
          "type": "uint256"
        }
      ],
      "name": "TicketDeactivated",
      "type": "event"
    },
    {
      "anonymous": false,
      "inputs": [
        {
          "indexed": true,
          "internalType": "uint256",
          "name": "tokenId",
          "type": "uint256"
        },
        {
          "indexed": true,
          "internalType": "address",
          "name": "user",
          "type": "address"
        }
      ],
      "name": "TicketUsed",
      "type": "event"
    },
    {
      "anonymous": false,
      "inputs": [
        {
          "indexed": true,
          "internalType": "address",
          "name": "operator",
          "type": "address"
        },
        {
          "indexed": true,
          "internalType": "address",
          "name": "from",
          "type": "address"
        },
        {
          "indexed": true,
          "internalType": "address",
          "name": "to",
          "type": "address"
        },
        {
          "indexed": false,
          "internalType": "uint256[]",
          "name": "ids",
          "type": "uint256[]"
        },
        {
          "indexed": false,
          "internalType": "uint256[]",
          "name": "values",
          "type": "uint256[]"
        }
      ],
      "name": "TransferBatch",
      "type": "event"
    },
    {
      "anonymous": false,
      "inputs": [
        {
          "indexed": true,
          "internalType": "address",
          "name": "operator",
          "type": "address"
        },
        {
          "indexed": true,
          "internalType": "address",
          "name": "from",
          "type": "address"
        },
        {
          "indexed": true,
          "internalType": "address",
          "name": "to",
          "type": "address"
        },
        {
          "indexed": false,
          "internalType": "uint256",
          "name": "id",
          "type": "uint256"
        },
        {
          "indexed": false,
          "internalType": "uint256",
          "name": "value",
          "type": "uint256"
        }
      ],
      "name": "TransferSingle",
      "type": "event"
    },
    {
      "anonymous": false,
      "inputs": [
        {
          "indexed": false,
          "internalType": "string",
          "name": "value",
          "type": "string"
        },
        {
          "indexed": true,
          "internalType": "uint256",
          "name": "id",
          "type": "uint256"
        }
      ],
      "name": "URI",
      "type": "event"
    },
    {
      "inputs": [
        {
          "internalType": "address",
          "name": "account",
          "type": "address"
        },
        {
          "internalType": "uint256",
          "name": "id",
          "type": "uint256"
        }
      ],
      "name": "balanceOf",
      "outputs": [
        {
          "internalType": "uint256",
          "name": "",
          "type": "uint256"
        }
      ],
      "stateMutability": "view",
      "type": "function"
    },
    {
      "inputs": [
        {
          "internalType": "address[]",
          "name": "accounts",
          "type": "address[]"
        },
        {
          "internalType": "uint256[]",
          "name": "ids",
          "type": "uint256[]"
        }
      ],
      "name": "balanceOfBatch",
      "outputs": [
        {
          "internalType": "uint256[]",
          "name": "",
          "type": "uint256[]"
        }
      ],
      "stateMutability": "view",
      "type": "function"
    },
    {
      "inputs": [
        {
          "internalType": "address",
          "name": "to",
          "type": "address"
        },
        {
          "internalType": "uint256[]",
          "name": "amounts",
          "type": "uint256[]"
        },
        {
          "internalType": "string[]",
          "name": "eventNames",
          "type": "string[]"
        },
        {
          "internalType": "string[]",
          "name": "sections",
          "type": "string[]"
        },
        {
          "internalType": "string[]",
          "name": "rows",
          "type": "string[]"
        },
        {
          "internalType": "string[]",
          "name": "seats",
          "type": "string[]"
        },
        {
          "internalType": "uint256[]",
          "name": "eventDates",
          "type": "uint256[]"
        },
        {
          "internalType": "uint256[]",
          "name": "prices",
          "type": "uint256[]"
        }
      ],
      "name": "createBatchTickets",
      "outputs": [],
      "stateMutability": "nonpayable",
      "type": "function"
    },
    {
      "inputs": [
        {
          "internalType": "address",
          "name": "to",
          "type": "address"
        },
        {
          "internalType": "uint256",
          "name": "amount",
          "type": "uint256"
        },
        {
          "internalType": "string",
          "name": "eventName",
          "type": "string"
        },
        {
          "internalType": "string",
          "name": "section",
          "type": "string"
        },
        {
          "internalType": "string",
          "name": "row",
          "type": "string"
        },
        {
          "internalType": "string",
          "name": "seat",
          "type": "string"
        },
        {
          "internalType": "uint256",
          "name": "eventDate",
          "type": "uint256"
        },
        {
          "internalType": "uint256",
          "name": "price",
          "type": "uint256"
        }
      ],
      "name": "createTickets",
      "outputs": [],
      "stateMutability": "nonpayable",
      "type": "function"
    },
    {
      "inputs": [
        {
          "internalType": "uint256",
          "name": "tokenId",
          "type": "uint256"
        }
      ],
      "name": "deactivateTicket",
      "outputs": [],
      "stateMutability": "nonpayable",
      "type": "function"
    },
    {
      "inputs": [
        {
          "internalType": "uint256",
          "name": "id",
          "type": "uint256"
        }
      ],
      "name": "exists",
      "outputs": [
        {
          "internalType": "bool",
          "name": "",
          "type": "bool"
        }
      ],
      "stateMutability": "view",
      "type": "function"
    },
    {
      "inputs": [],
      "name": "getCurrentTokenId",
      "outputs": [
        {
          "internalType": "uint256",
          "name": "",
          "type": "uint256"
        }
      ],
      "stateMutability": "view",
      "type": "function"
    },
    {
      "inputs": [
        {
          "internalType": "uint256",
          "name": "tokenId",
          "type": "uint256"
        }
      ],
      "name": "getTicketInfo",
      "outputs": [
        {
          "components": [
            {
              "internalType": "string",
              "name": "eventName",
              "type": "string"
            },
            {
              "internalType": "string",
              "name": "section",
              "type": "string"
            },
            {
              "internalType": "string",
              "name": "row",
              "type": "string"
            },
            {
              "internalType": "string",
              "name": "seat",
              "type": "string"
            },
            {
              "internalType": "uint256",
              "name": "eventDate",
              "type": "uint256"
            },
            {
              "internalType": "uint256",
              "name": "price",
              "type": "uint256"
            },
            {
              "internalType": "bool",
              "name": "isActive",
              "type": "bool"
            }
          ],
          "internalType": "struct TicketToken.TicketInfo",
          "name": "ticket",
          "type": "tuple"
        },
        {
          "internalType": "bool",
          "name": "isUsed",
          "type": "bool"
        }
      ],
      "stateMutability": "view",
      "type": "function"
    },
    {
      "inputs": [
        {
          "internalType": "address",
          "name": "account",
          "type": "address"
        },
        {
          "internalType": "address",
          "name": "operator",
          "type": "address"
        }
      ],
      "name": "isApprovedForAll",
      "outputs": [
        {
          "internalType": "bool",
          "name": "",
          "type": "bool"
        }
      ],
      "stateMutability": "view",
      "type": "function"
    },
    {
      "inputs": [
        {
          "internalType": "uint256",
          "name": "tokenId",
          "type": "uint256"
        }
      ],
      "name": "isTicketValid",
      "outputs": [
        {
          "internalType": "bool",
          "name": "",
          "type": "bool"
        }
      ],
      "stateMutability": "view",
      "type": "function"
    },
    {
      "inputs": [],
      "name": "owner",
      "outputs": [
        {
          "internalType": "address",
          "name": "",
          "type": "address"
        }
      ],
      "stateMutability": "view",
      "type": "function"
    },
    {
      "inputs": [],
      "name": "renounceOwnership",
      "outputs": [],
      "stateMutability": "nonpayable",
      "type": "function"
    },
    {
      "inputs": [
        {
          "internalType": "address",
          "name": "from",
          "type": "address"
        },
        {
          "internalType": "address",
          "name": "to",
          "type": "address"
        },
        {
          "internalType": "uint256[]",
          "name": "ids",
          "type": "uint256[]"
        },
        {
          "internalType": "uint256[]",
          "name": "amounts",
          "type": "uint256[]"
        },
        {
          "internalType": "bytes",
          "name": "data",
          "type": "bytes"
        }
      ],
      "name": "safeBatchTransferFrom",
      "outputs": [],
      "stateMutability": "nonpayable",
      "type": "function"
    },
    {
      "inputs": [
        {
          "internalType": "address",
          "name": "from",
          "type": "address"
        },
        {
          "internalType": "address",
          "name": "to",
          "type": "address"
        },
        {
          "internalType": "uint256",
          "name": "id",
          "type": "uint256"
        },
        {
          "internalType": "uint256",
          "name": "amount",
          "type": "uint256"
        },
        {
          "internalType": "bytes",
          "name": "data",
          "type": "bytes"
        }
      ],
      "name": "safeTransferFrom",
      "outputs": [],
      "stateMutability": "nonpayable",
      "type": "function"
    },
    {
      "inputs": [
        {
          "internalType": "address",
          "name": "operator",
          "type": "address"
        },
        {
          "internalType": "bool",
          "name": "approved",
          "type": "bool"
        }
      ],
      "name": "setApprovalForAll",
      "outputs": [],
      "stateMutability": "nonpayable",
      "type": "function"
    },
    {
      "inputs": [
        {
          "internalType": "string",
          "name": "newuri",
          "type": "string"
        }
      ],
      "name": "setURI",
      "outputs": [],
      "stateMutability": "nonpayable",
      "type": "function"
    },
    {
      "inputs": [
        {
          "internalType": "bytes4",
          "name": "interfaceId",
          "type": "bytes4"
        }
      ],
      "name": "supportsInterface",
      "outputs": [
        {
          "internalType": "bool",
          "name": "",
          "type": "bool"
        }
      ],
      "stateMutability": "view",
      "type": "function"
    },
    {
      "inputs": [
        {
          "internalType": "uint256",
          "name": "",
          "type": "uint256"
        }
      ],
      "name": "ticketInfo",
      "outputs": [
        {
          "internalType": "string",
          "name": "eventName",
          "type": "string"
        },
        {
          "internalType": "string",
          "name": "section",
          "type": "string"
        },
        {
          "internalType": "string",
          "name": "row",
          "type": "string"
        },
        {
          "internalType": "string",
          "name": "seat",
          "type": "string"
        },
        {
          "internalType": "uint256",
          "name": "eventDate",
          "type": "uint256"
        },
        {
          "internalType": "uint256",
          "name": "price",
          "type": "uint256"
        },
        {
          "internalType": "bool",
          "name": "isActive",
          "type": "bool"
        }
      ],
      "stateMutability": "view",
      "type": "function"
    },
    {
      "inputs": [],
      "name": "totalSupply",
      "outputs": [
        {
          "internalType": "uint256",
          "name": "",
          "type": "uint256"
        }
      ],
      "stateMutability": "view",
      "type": "function"
    },
    {
      "inputs": [
        {
          "internalType": "uint256",
          "name": "id",
          "type": "uint256"
        }
      ],
      "name": "totalSupply",
      "outputs": [
        {
          "internalType": "uint256",
          "name": "",
          "type": "uint256"
        }
      ],
      "stateMutability": "view",
      "type": "function"
    },
    {
      "inputs": [
        {
          "internalType": "address",
          "name": "newOwner",
          "type": "address"
        }
      ],
      "name": "transferOwnership",
      "outputs": [],
      "stateMutability": "nonpayable",
      "type": "function"
    },
    {
      "inputs": [
        {
          "internalType": "uint256",
          "name": "",
          "type": "uint256"
        }
      ],
      "name": "uri",
      "outputs": [
        {
          "internalType": "string",
          "name": "",
          "type": "string"
        }
      ],
      "stateMutability": "view",
      "type": "function"
    },
    {
      "inputs": [
        {
          "internalType": "uint256",
          "name": "tokenId",
          "type": "uint256"
        }
      ],
      "name": "useTicket",
      "outputs": [],
      "stateMutability": "nonpayable",
      "type": "function"
    },
    {
      "inputs": [
        {
          "internalType": "uint256",
          "name": "",
          "type": "uint256"
        }
      ],
      "name": "usedTickets",
      "outputs": [
        {
          "internalType": "bool",
          "name": "",
          "type": "bool"
        }
      ],
      "stateMutability": "view",
      "type": "function"
    }
  ],
  "bytecode": "0x608060405234801561000f575f5ffd5b506040516150003803806150008339818101604052810190610031919061034f565b8082610042816100d260201b60201c565b505f73ffffffffffffffffffffffffffffffffffffffff168173ffffffffffffffffffffffffffffffffffffffff16036100b3575f6040517f1e4fbdf70000000000000000000000000000000000000000000000000000000081526004016100aa91906103b8565b60405180910390fd5b6100c2816100e560201b60201c565b50600160088190555050506106b0565b80600290816100e191906105e1565b5050565b5f60035f9054906101000a900473ffffffffffffffffffffffffffffffffffffffff1690508160035f6101000a81548173ffffffffffffffffffffffffffffffffffffffff021916908373ffffffffffffffffffffffffffffffffffffffff1602179055508173ffffffffffffffffffffffffffffffffffffffff168173ffffffffffffffffffffffffffffffffffffffff167f8be0079c531659141344cd1fd0a4f28419497f9722a3daafe3b4186f6b6457e060405160405180910390a35050565b5f604051905090565b5f5ffd5b5f5ffd5b5f5ffd5b5f5ffd5b5f601f19601f8301169050919050565b7f4e487b71000000000000000000000000000000000000000000000000000000005f52604160045260245ffd5b610207826101c1565b810181811067ffffffffffffffff82111715610226576102256101d1565b5b80604052505050565b5f6102386101a8565b905061024482826101fe565b919050565b5f67ffffffffffffffff821115610263576102626101d1565b5b61026c826101c1565b9050602081019050919050565b8281835e5f83830152505050565b5f61029961029484610249565b61022f565b9050828152602081018484840111156102b5576102b46101bd565b5b6102c0848285610279565b509392505050565b5f82601f8301126102dc576102db6101b9565b5b81516102ec848260208601610287565b91505092915050565b5f73ffffffffffffffffffffffffffffffffffffffff82169050919050565b5f61031e826102f5565b9050919050565b61032e81610314565b8114610338575f5ffd5b50565b5f8151905061034981610325565b92915050565b5f5f60408385031215610365576103646101b1565b5b5f83015167ffffffffffffffff811115610382576103816101b5565b5b61038e858286016102c8565b925050602061039f8582860161033b565b9150509250929050565b6103b281610314565b82525050565b5f6020820190506103cb5f8301846103a9565b92915050565b5f81519050919050565b7f4e487b71000000000000000000000000000000000000000000000000000000005f52602260045260245ffd5b5f600282049050600182168061041f57607f821691505b602082108103610432576104316103db565b5b50919050565b5f819050815f5260205f209050919050565b5f6020601f8301049050919050565b5f82821b905092915050565b5f600883026104947fffffffffffffffffffffffffffffffffffffffffffffffffffffffffffffffff82610459565b61049e8683610459565b95508019841693508086168417925050509392505050565b5f819050919050565b5f819050919050565b5f6104e26104dd6104d8846104b6565b6104bf565b6104b6565b9050919050565b5f819050919050565b6104fb836104c8565b61050f610507826104e9565b848454610465565b825550505050565b5f5f905090565b610526610517565b6105318184846104f2565b505050565b5b81811015610554576105495f8261051e565b600181019050610537565b5050565b601f8211156105995761056a81610438565b6105738461044a565b81016020851015610582578190505b61059661058e8561044a565b830182610536565b50505b505050565b5f82821c905092915050565b5f6105b95f198460080261059e565b1980831691505092915050565b5f6105d183836105aa565b9150826002028217905092915050565b6105ea826103d1565b67ffffffffffffffff811115610603576106026101d1565b5b61060d8254610408565b610618828285610558565b5f60209050601f831160018114610649575f8415610637578287015190505b61064185826105c6565b8655506106a8565b601f19841661065786610438565b5f5b8281101561067e57848901518255600182019150602085019450602081019050610659565b8683101561069b5784890151610697601f8916826105aa565b8355505b6001600288020188555050505b505050505050565b614943806106bd5f395ff3fe608060405234801561000f575f5ffd5b5060043610610155575f3560e01c806371efdc21116100c1578063e985e9c51161007a578063e985e9c5146103d1578063f242432a14610401578063f2fde38b1461041d578063fa71308314610439578063fb3ae56f1461046f578063ff99a0631461049f57610155565b806371efdc21146102ff5780638da5cb5b1461032f578063a22cb4651461034d578063bd85b03914610369578063d45417eb14610399578063deb28169146103b557610155565b80632660644811610113578063266064481461023f5780632eb2c2d61461025b5780634e1273f4146102775780634f558e79146102a757806356189236146102d7578063715018a6146102f557610155565b8062fdd58e1461015957806301ffc9a71461018957806302fe5305146101b95780630e89341c146101d557806318160ddd1461020557806319cabf0c14610223575b5f5ffd5b610173600480360381019061016e9190612fc0565b6104d0565b604051610180919061300d565b60405180910390f35b6101a3600480360381019061019e919061307b565b610525565b6040516101b091906130c0565b60405180910390f35b6101d360048036038101906101ce9190613215565b610606565b005b6101ef60048036038101906101ea919061325c565b61061a565b6040516101fc91906132e7565b60405180910390f35b61020d6106ac565b60405161021a919061300d565b60405180910390f35b61023d6004803603810190610238919061325c565b6106b5565b005b6102596004803603810190610254919061325c565b610718565b005b61027560048036038101906102709190613469565b6108f6565b005b610291600480360381019061028c91906135f4565b610a18565b60405161029e9190613721565b60405180910390f35b6102c160048036038101906102bc919061325c565b610b22565b6040516102ce91906130c0565b60405180910390f35b6102df610b35565b6040516102ec919061300d565b60405180910390f35b6102fd610b3e565b005b6103196004803603810190610314919061325c565b610b51565b60405161032691906130c0565b60405180910390f35b610337610b6e565b6040516103449190613750565b60405180910390f35b61036760048036038101906103629190613793565b610b96565b005b610383600480360381019061037e919061325c565b610bac565b604051610390919061300d565b60405180910390f35b6103b360048036038101906103ae91906137d1565b610bc6565b005b6103cf60048036038101906103ca91906139d0565b610e73565b005b6103eb60048036038101906103e69190613b45565b6113e4565b6040516103f891906130c0565b60405180910390f35b61041b60048036038101906104169190613b83565b611472565b005b61043760048036038101906104329190613c16565b611544565b005b610453600480360381019061044e919061325c565b6115c8565b6040516104669796959493929190613c41565b60405180910390f35b6104896004803603810190610484919061325c565b61182a565b60405161049691906130c0565b60405180910390f35b6104b960048036038101906104b4919061325c565b611b09565b6040516104c7929190613dcf565b60405180910390f35b5f5f5f8381526020019081526020015f205f8473ffffffffffffffffffffffffffffffffffffffff1673ffffffffffffffffffffffffffffffffffffffff1681526020019081526020015f2054905092915050565b5f7fd9b67a26000000000000000000000000000000000000000000000000000000007bffffffffffffffffffffffffffffffffffffffffffffffffffffffff1916827bffffffffffffffffffffffffffffffffffffffffffffffffffffffff191614806105ef57507f0e89341c000000000000000000000000000000000000000000000000000000007bffffffffffffffffffffffffffffffffffffffffffffffffffffffff1916827bffffffffffffffffffffffffffffffffffffffffffffffffffffffff1916145b806105ff57506105fe82611dc2565b5b9050919050565b61060e611e2b565b61061781611eb2565b50565b60606002805461062990613e2a565b80601f016020809104026020016040519081016040528092919081815260200182805461065590613e2a565b80156106a05780601f10610677576101008083540402835291602001916106a0565b820191905f5260205f20905b81548152906001019060200180831161068357829003601f168201915b50505050509050919050565b5f600554905090565b6106bd611e2b565b5f60065f8381526020019081526020015f206006015f6101000a81548160ff021916908315150217905550807f76fc500933822fd6b96701f2eb7440a32da132e13442f434622b2836c72b494a60405160405180910390a250565b5f61072333836104d0565b11610763576040517f08c379a000000000000000000000000000000000000000000000000000000000815260040161075a90613ea4565b60405180910390fd5b60075f8281526020019081526020015f205f9054906101000a900460ff16156107c1576040517f08c379a00000000000000000000000000000000000000000000000000000000081526004016107b890613f0c565b60405180910390fd5b60065f8281526020019081526020015f206006015f9054906101000a900460ff16610821576040517f08c379a000000000000000000000000000000000000000000000000000000000815260040161081890613f74565b60405180910390fd5b6201518060065f8381526020019081526020015f20600401546108449190613fbf565b421115610886576040517f08c379a000000000000000000000000000000000000000000000000000000000815260040161087d9061403c565b60405180910390fd5b600160075f8381526020019081526020015f205f6101000a81548160ff0219169083151502179055503373ffffffffffffffffffffffffffffffffffffffff16817f07c2221c844690cb15e32907258d38446cd4a17bc9b84e2069cd955615d547fd60405160405180910390a350565b5f5f90505b8351811015610a035760065f85838151811061091a5761091961405a565b5b602002602001015181526020019081526020015f206006015f9054906101000a900460ff1661097e576040517f08c379a0000000000000000000000000000000000000000000000000000000008152600401610975906140d1565b60405180910390fd5b60075f8583815181106109945761099361405a565b5b602002602001015181526020019081526020015f205f9054906101000a900460ff16156109f6576040517f08c379a00000000000000000000000000000000000000000000000000000000081526004016109ed90614139565b60405180910390fd5b80806001019150506108fb565b50610a118585858585611ec5565b5050505050565b60608151835114610a6457815183516040517f5b059991000000000000000000000000000000000000000000000000000000008152600401610a5b929190614157565b60405180910390fd5b5f835167ffffffffffffffff811115610a8057610a7f6130f1565b5b604051908082528060200260200182016040528015610aae5781602001602082028036833780820191505090505b5090505f5f90505b8451811015610b1757610aed610ad58287611f6c90919063ffffffff16565b610ae88387611f7f90919063ffffffff16565b6104d0565b828281518110610b0057610aff61405a565b5b602002602001018181525050806001019050610ab6565b508091505092915050565b5f5f610b2d83610bac565b119050919050565b5f600854905090565b610b46611e2b565b610b4f5f611f92565b565b6007602052805f5260405f205f915054906101000a900460ff1681565b5f60035f9054906101000a900473ffffffffffffffffffffffffffffffffffffffff16905090565b610ba8610ba1612055565b838361205c565b5050565b5f60045f8381526020019081526020015f20549050919050565b610bce611e2b565b428211610c10576040517f08c379a0000000000000000000000000000000000000000000000000000000008152600401610c07906141c8565b60405180910390fd5b5f865111610c53576040517f08c379a0000000000000000000000000000000000000000000000000000000008152600401610c4a90614230565b60405180910390fd5b5f855111610c96576040517f08c379a0000000000000000000000000000000000000000000000000000000008152600401610c8d90614298565b60405180910390fd5b5f845111610cd9576040517f08c379a0000000000000000000000000000000000000000000000000000000008152600401610cd090614300565b60405180910390fd5b5f835111610d1c576040517f08c379a0000000000000000000000000000000000000000000000000000000008152600401610d1390614368565b60405180910390fd5b5f60085490506040518060e001604052808881526020018781526020018681526020018581526020018481526020018381526020016001151581525060065f8381526020019081526020015f205f820151815f019081610d7c9190614526565b506020820151816001019081610d929190614526565b506040820151816002019081610da89190614526565b506060820151816003019081610dbe9190614526565b506080820151816004015560a0820151816005015560c0820151816006015f6101000a81548160ff021916908315150217905550905050610e0f89828a60405180602001604052805f8152506121c5565b807fd6cba045acd18167e2417c4b3cc82b8d006c4f37e575c4fea101831d7c64d1c1888888888888604051610e49969594939291906145f5565b60405180910390a260085f815480929190610e6390614670565b9190505550505050505050505050565b610e7b611e2b565b8551875114610ebf576040517f08c379a0000000000000000000000000000000000000000000000000000000008152600401610eb690614701565b60405180910390fd5b8451875114610f03576040517f08c379a0000000000000000000000000000000000000000000000000000000008152600401610efa90614701565b60405180910390fd5b8351875114610f47576040517f08c379a0000000000000000000000000000000000000000000000000000000008152600401610f3e90614701565b60405180910390fd5b8251875114610f8b576040517f08c379a0000000000000000000000000000000000000000000000000000000008152600401610f8290614701565b60405180910390fd5b8151875114610fcf576040517f08c379a0000000000000000000000000000000000000000000000000000000008152600401610fc690614701565b60405180910390fd5b8051875114611013576040517f08c379a000000000000000000000000000000000000000000000000000000000815260040161100a90614701565b60405180910390fd5b5f875167ffffffffffffffff81111561102f5761102e6130f1565b5b60405190808252806020026020018201604052801561105d5781602001602082028036833780820191505090505b5090505f5f90505b88518110156113be57428482815181106110825761108161405a565b5b6020026020010151116110ca576040517f08c379a00000000000000000000000000000000000000000000000000000000081526004016110c1906141c8565b60405180910390fd5b5f8882815181106110de576110dd61405a565b5b60200260200101515111611127576040517f08c379a000000000000000000000000000000000000000000000000000000000815260040161111e90614230565b60405180910390fd5b60085482828151811061113d5761113c61405a565b5b6020026020010181815250506040518060e001604052808983815181106111675761116661405a565b5b602002602001015181526020018883815181106111875761118661405a565b5b602002602001015181526020018783815181106111a7576111a661405a565b5b602002602001015181526020018683815181106111c7576111c661405a565b5b602002602001015181526020018583815181106111e7576111e661405a565b5b602002602001015181526020018483815181106112075761120661405a565b5b602002602001015181526020016001151581525060065f60085481526020019081526020015f205f820151815f0190816112419190614526565b5060208201518160010190816112579190614526565b50604082015181600201908161126d9190614526565b5060608201518160030190816112839190614526565b506080820151816004015560a0820151816005015560c0820151816006015f6101000a81548160ff0219169083151502179055509050506008547fd6cba045acd18167e2417c4b3cc82b8d006c4f37e575c4fea101831d7c64d1c18983815181106112f1576112f061405a565b5b602002602001015189848151811061130c5761130b61405a565b5b60200260200101518985815181106113275761132661405a565b5b60200260200101518986815181106113425761134161405a565b5b602002602001015189878151811061135d5761135c61405a565b5b60200260200101518988815181106113785761137761405a565b5b6020026020010151604051611392969594939291906145f5565b60405180910390a260085f8154809291906113ac90614670565b91905055508080600101915050611065565b506113d989828a60405180602001604052805f81525061225a565b505050505050505050565b5f60015f8473ffffffffffffffffffffffffffffffffffffffff1673ffffffffffffffffffffffffffffffffffffffff1681526020019081526020015f205f8373ffffffffffffffffffffffffffffffffffffffff1673ffffffffffffffffffffffffffffffffffffffff1681526020019081526020015f205f9054906101000a900460ff16905092915050565b60065f8481526020019081526020015f206006015f9054906101000a900460ff166114d2576040517f08c379a00000000000000000000000000000000000000000000000000000000081526004016114c9906140d1565b60405180910390fd5b60075f8481526020019081526020015f205f9054906101000a900460ff1615611530576040517f08c379a000000000000000000000000000000000000000000000000000000000815260040161152790614139565b60405180910390fd5b61153d85858585856122dd565b5050505050565b61154c611e2b565b5f73ffffffffffffffffffffffffffffffffffffffff168173ffffffffffffffffffffffffffffffffffffffff16036115bc575f6040517f1e4fbdf70000000000000000000000000000000000000000000000000000000081526004016115b39190613750565b60405180910390fd5b6115c581611f92565b50565b6006602052805f5260405f205f91509050805f0180546115e790613e2a565b80601f016020809104026020016040519081016040528092919081815260200182805461161390613e2a565b801561165e5780601f106116355761010080835404028352916020019161165e565b820191905f5260205f20905b81548152906001019060200180831161164157829003601f168201915b50505050509080600101805461167390613e2a565b80601f016020809104026020016040519081016040528092919081815260200182805461169f90613e2a565b80156116ea5780601f106116c1576101008083540402835291602001916116ea565b820191905f5260205f20905b8154815290600101906020018083116116cd57829003601f168201915b5050505050908060020180546116ff90613e2a565b80601f016020809104026020016040519081016040528092919081815260200182805461172b90613e2a565b80156117765780601f1061174d57610100808354040283529160200191611776565b820191905f5260205f20905b81548152906001019060200180831161175957829003601f168201915b50505050509080600301805461178b90613e2a565b80601f01602080910402602001604051908101604052809291908181526020018280546117b790613e2a565b80156118025780601f106117d957610100808354040283529160200191611802565b820191905f5260205f20905b8154815290600101906020018083116117e557829003601f168201915b505050505090806004015490806005015490806006015f9054906101000a900460ff16905087565b5f5f60065f8481526020019081526020015f206040518060e00160405290815f8201805461185790613e2a565b80601f016020809104026020016040519081016040528092919081815260200182805461188390613e2a565b80156118ce5780601f106118a5576101008083540402835291602001916118ce565b820191905f5260205f20905b8154815290600101906020018083116118b157829003601f168201915b505050505081526020016001820180546118e790613e2a565b80601f016020809104026020016040519081016040528092919081815260200182805461191390613e2a565b801561195e5780601f106119355761010080835404028352916020019161195e565b820191905f5260205f20905b81548152906001019060200180831161194157829003601f168201915b5050505050815260200160028201805461197790613e2a565b80601f01602080910402602001604051908101604052809291908181526020018280546119a390613e2a565b80156119ee5780601f106119c5576101008083540402835291602001916119ee565b820191905f5260205f20905b8154815290600101906020018083116119d157829003601f168201915b50505050508152602001600382018054611a0790613e2a565b80601f0160208091040260200160405190810160405280929190818152602001828054611a3390613e2a565b8015611a7e5780601f10611a5557610100808354040283529160200191611a7e565b820191905f5260205f20905b815481529060010190602001808311611a6157829003601f168201915b505050505081526020016004820154815260200160058201548152602001600682015f9054906101000a900460ff16151515158152505090508060c001518015611ae3575060075f8481526020019081526020015f205f9054906101000a900460ff16155b8015611b015750620151808160800151611afd9190613fbf565b4211155b915050919050565b611b11612ee6565b5f60065f8481526020019081526020015f206040518060e00160405290815f82018054611b3d90613e2a565b80601f0160208091040260200160405190810160405280929190818152602001828054611b6990613e2a565b8015611bb45780601f10611b8b57610100808354040283529160200191611bb4565b820191905f5260205f20905b815481529060010190602001808311611b9757829003601f168201915b50505050508152602001600182018054611bcd90613e2a565b80601f0160208091040260200160405190810160405280929190818152602001828054611bf990613e2a565b8015611c445780601f10611c1b57610100808354040283529160200191611c44565b820191905f5260205f20905b815481529060010190602001808311611c2757829003601f168201915b50505050508152602001600282018054611c5d90613e2a565b80601f0160208091040260200160405190810160405280929190818152602001828054611c8990613e2a565b8015611cd45780601f10611cab57610100808354040283529160200191611cd4565b820191905f5260205f20905b815481529060010190602001808311611cb757829003601f168201915b50505050508152602001600382018054611ced90613e2a565b80601f0160208091040260200160405190810160405280929190818152602001828054611d1990613e2a565b8015611d645780601f10611d3b57610100808354040283529160200191611d64565b820191905f5260205f20905b815481529060010190602001808311611d4757829003601f168201915b505050505081526020016004820154815260200160058201548152602001600682015f9054906101000a900460ff161515151581525050915060075f8481526020019081526020015f205f9054906101000a900460ff169050915091565b5f7f01ffc9a7000000000000000000000000000000000000000000000000000000007bffffffffffffffffffffffffffffffffffffffffffffffffffffffff1916827bffffffffffffffffffffffffffffffffffffffffffffffffffffffff1916149050919050565b611e33612055565b73ffffffffffffffffffffffffffffffffffffffff16611e51610b6e565b73ffffffffffffffffffffffffffffffffffffffff1614611eb057611e74612055565b6040517f118cdaa7000000000000000000000000000000000000000000000000000000008152600401611ea79190613750565b60405180910390fd5b565b8060029081611ec19190614526565b5050565b5f611ece612055565b90508073ffffffffffffffffffffffffffffffffffffffff168673ffffffffffffffffffffffffffffffffffffffff1614158015611f135750611f1186826113e4565b155b15611f575780866040517fe237d922000000000000000000000000000000000000000000000000000000008152600401611f4e92919061471f565b60405180910390fd5b611f648686868686612384565b505050505050565b5f60208202602084010151905092915050565b5f60208202602084010151905092915050565b5f60035f9054906101000a900473ffffffffffffffffffffffffffffffffffffffff1690508160035f6101000a81548173ffffffffffffffffffffffffffffffffffffffff021916908373ffffffffffffffffffffffffffffffffffffffff1602179055508173ffffffffffffffffffffffffffffffffffffffff168173ffffffffffffffffffffffffffffffffffffffff167f8be0079c531659141344cd1fd0a4f28419497f9722a3daafe3b4186f6b6457e060405160405180910390a35050565b5f33905090565b5f73ffffffffffffffffffffffffffffffffffffffff168273ffffffffffffffffffffffffffffffffffffffff16036120cc575f6040517fced3e1000000000000000000000000000000000000000000000000000000000081526004016120c39190613750565b60405180910390fd5b8060015f8573ffffffffffffffffffffffffffffffffffffffff1673ffffffffffffffffffffffffffffffffffffffff1681526020019081526020015f205f8473ffffffffffffffffffffffffffffffffffffffff1673ffffffffffffffffffffffffffffffffffffffff1681526020019081526020015f205f6101000a81548160ff0219169083151502179055508173ffffffffffffffffffffffffffffffffffffffff168373ffffffffffffffffffffffffffffffffffffffff167f17307eab39ab6107e8899845ad3d59bd9653f200f220920489ca2b5937696c31836040516121b891906130c0565b60405180910390a3505050565b5f73ffffffffffffffffffffffffffffffffffffffff168473ffffffffffffffffffffffffffffffffffffffff1603612235575f6040517f57f447ce00000000000000000000000000000000000000000000000000000000815260040161222c9190613750565b60405180910390fd5b5f5f6122418585612478565b915091506122525f878484876124a8565b505050505050565b5f73ffffffffffffffffffffffffffffffffffffffff168473ffffffffffffffffffffffffffffffffffffffff16036122ca575f6040517f57f447ce0000000000000000000000000000000000000000000000000000000081526004016122c19190613750565b60405180910390fd5b6122d75f858585856124a8565b50505050565b5f6122e6612055565b90508073ffffffffffffffffffffffffffffffffffffffff168673ffffffffffffffffffffffffffffffffffffffff161415801561232b575061232986826113e4565b155b1561236f5780866040517fe237d92200000000000000000000000000000000000000000000000000000000815260040161236692919061471f565b60405180910390fd5b61237c8686868686612554565b505050505050565b5f73ffffffffffffffffffffffffffffffffffffffff168473ffffffffffffffffffffffffffffffffffffffff16036123f4575f6040517f57f447ce0000000000000000000000000000000000000000000000000000000081526004016123eb9190613750565b60405180910390fd5b5f73ffffffffffffffffffffffffffffffffffffffff168573ffffffffffffffffffffffffffffffffffffffff1603612464575f6040517f01a8351400000000000000000000000000000000000000000000000000000000815260040161245b9190613750565b60405180910390fd5b61247185858585856124a8565b5050505050565b60608060405191506001825283602083015260408201905060018152826020820152604081016040529250929050565b6124b48585858561265a565b5f73ffffffffffffffffffffffffffffffffffffffff168473ffffffffffffffffffffffffffffffffffffffff161461254d575f6124f0612055565b9050600184510361253c575f61250f5f86611f7f90919063ffffffff16565b90505f6125255f86611f7f90919063ffffffff16565b905061253583898985858961266c565b505061254b565b61254a81878787878761281b565b5b505b5050505050565b5f73ffffffffffffffffffffffffffffffffffffffff168473ffffffffffffffffffffffffffffffffffffffff16036125c4575f6040517f57f447ce0000000000000000000000000000000000000000000000000000000081526004016125bb9190613750565b60405180910390fd5b5f73ffffffffffffffffffffffffffffffffffffffff168573ffffffffffffffffffffffffffffffffffffffff1603612634575f6040517f01a8351400000000000000000000000000000000000000000000000000000000815260040161262b9190613750565b60405180910390fd5b5f5f6126408585612478565b9150915061265187878484876124a8565b50505050505050565b612666848484846129ca565b50505050565b5f8473ffffffffffffffffffffffffffffffffffffffff163b1115612813578373ffffffffffffffffffffffffffffffffffffffff1663f23a6e6187878686866040518663ffffffff1660e01b81526004016126cc959493929190614798565b6020604051808303815f875af192505050801561270757506040513d601f19601f820116820180604052508101906127049190614804565b60015b612788573d805f8114612735576040519150601f19603f3d011682016040523d82523d5f602084013e61273a565b606091505b505f81510361278057846040517f57f447ce0000000000000000000000000000000000000000000000000000000081526004016127779190613750565b60405180910390fd5b805160208201fd5b63f23a6e6160e01b7bffffffffffffffffffffffffffffffffffffffffffffffffffffffff1916817bffffffffffffffffffffffffffffffffffffffffffffffffffffffff19161461281157846040517f57f447ce0000000000000000000000000000000000000000000000000000000081526004016128089190613750565b60405180910390fd5b505b505050505050565b5f8473ffffffffffffffffffffffffffffffffffffffff163b11156129c2578373ffffffffffffffffffffffffffffffffffffffff1663bc197c8187878686866040518663ffffffff1660e01b815260040161287b95949392919061482f565b6020604051808303815f875af19250505080156128b657506040513d601f19601f820116820180604052508101906128b39190614804565b60015b612937573d805f81146128e4576040519150601f19603f3d011682016040523d82523d5f602084013e6128e9565b606091505b505f81510361292f57846040517f57f447ce0000000000000000000000000000000000000000000000000000000081526004016129269190613750565b60405180910390fd5b805160208201fd5b63bc197c8160e01b7bffffffffffffffffffffffffffffffffffffffffffffffffffffffff1916817bffffffffffffffffffffffffffffffffffffffffffffffffffffffff1916146129c057846040517f57f447ce0000000000000000000000000000000000000000000000000000000081526004016129b79190613750565b60405180910390fd5b505b505050505050565b6129d684848484612b53565b5f73ffffffffffffffffffffffffffffffffffffffff168473ffffffffffffffffffffffffffffffffffffffff1603612a9f575f5f90505f5f90505b8351811015612a84575f612a2f8285611f7f90919063ffffffff16565b90508060045f612a488589611f7f90919063ffffffff16565b81526020019081526020015f205f828254612a639190613fbf565b925050819055508083612a769190613fbf565b925050806001019050612a12565b508060055f828254612a969190613fbf565b92505081905550505b5f73ffffffffffffffffffffffffffffffffffffffff168373ffffffffffffffffffffffffffffffffffffffff1603612b4d575f5f90505f5f90505b8351811015612b3b575f612af88285611f7f90919063ffffffff16565b90508060045f612b118589611f7f90919063ffffffff16565b81526020019081526020015f205f8282540392505081905550808301925050806001019050612adb565b508060055f8282540392505081905550505b50505050565b8051825114612b9d57815181516040517f5b059991000000000000000000000000000000000000000000000000000000008152600401612b94929190614157565b60405180910390fd5b5f612ba6612055565b90505f5f90505b8351811015612da5575f612bca8286611f7f90919063ffffffff16565b90505f612be08386611f7f90919063ffffffff16565b90505f73ffffffffffffffffffffffffffffffffffffffff168873ffffffffffffffffffffffffffffffffffffffff1614612d03575f5f5f8481526020019081526020015f205f8a73ffffffffffffffffffffffffffffffffffffffff1673ffffffffffffffffffffffffffffffffffffffff1681526020019081526020015f2054905081811015612caf57888183856040517f03dee4c5000000000000000000000000000000000000000000000000000000008152600401612ca69493929190614895565b60405180910390fd5b8181035f5f8581526020019081526020015f205f8b73ffffffffffffffffffffffffffffffffffffffff1673ffffffffffffffffffffffffffffffffffffffff1681526020019081526020015f2081905550505b5f73ffffffffffffffffffffffffffffffffffffffff168773ffffffffffffffffffffffffffffffffffffffff1614612d9857805f5f8481526020019081526020015f205f8973ffffffffffffffffffffffffffffffffffffffff1673ffffffffffffffffffffffffffffffffffffffff1681526020019081526020015f205f828254612d909190613fbf565b925050819055505b5050806001019050612bad565b506001835103612e60575f612dc35f85611f7f90919063ffffffff16565b90505f612dd95f85611f7f90919063ffffffff16565b90508573ffffffffffffffffffffffffffffffffffffffff168773ffffffffffffffffffffffffffffffffffffffff168473ffffffffffffffffffffffffffffffffffffffff167fc3d58168c5ae7397731d063d5bbf3d657854427343f4c083240f7aacaa2d0f628585604051612e51929190614157565b60405180910390a45050612edf565b8373ffffffffffffffffffffffffffffffffffffffff168573ffffffffffffffffffffffffffffffffffffffff168273ffffffffffffffffffffffffffffffffffffffff167f4a39dc06d4c0dbc64b70af90fd698a233a518aa5d07e595d983b8c0526c8f7fb8686604051612ed69291906148d8565b60405180910390a45b5050505050565b6040518060e00160405280606081526020016060815260200160608152602001606081526020015f81526020015f81526020015f151581525090565b5f604051905090565b5f5ffd5b5f5ffd5b5f73ffffffffffffffffffffffffffffffffffffffff82169050919050565b5f612f5c82612f33565b9050919050565b612f6c81612f52565b8114612f76575f5ffd5b50565b5f81359050612f8781612f63565b92915050565b5f819050919050565b612f9f81612f8d565b8114612fa9575f5ffd5b50565b5f81359050612fba81612f96565b92915050565b5f5f60408385031215612fd657612fd5612f2b565b5b5f612fe385828601612f79565b9250506020612ff485828601612fac565b9150509250929050565b61300781612f8d565b82525050565b5f6020820190506130205f830184612ffe565b92915050565b5f7fffffffff0000000000000000000000000000000000000000000000000000000082169050919050565b61305a81613026565b8114613064575f5ffd5b50565b5f8135905061307581613051565b92915050565b5f602082840312156130905761308f612f2b565b5b5f61309d84828501613067565b91505092915050565b5f8115159050919050565b6130ba816130a6565b82525050565b5f6020820190506130d35f8301846130b1565b92915050565b5f5ffd5b5f5ffd5b5f601f19601f8301169050919050565b7f4e487b71000000000000000000000000000000000000000000000000000000005f52604160045260245ffd5b613127826130e1565b810181811067ffffffffffffffff82111715613146576131456130f1565b5b80604052505050565b5f613158612f22565b9050613164828261311e565b919050565b5f67ffffffffffffffff821115613183576131826130f1565b5b61318c826130e1565b9050602081019050919050565b828183375f83830152505050565b5f6131b96131b484613169565b61314f565b9050828152602081018484840111156131d5576131d46130dd565b5b6131e0848285613199565b509392505050565b5f82601f8301126131fc576131fb6130d9565b5b813561320c8482602086016131a7565b91505092915050565b5f6020828403121561322a57613229612f2b565b5b5f82013567ffffffffffffffff81111561324757613246612f2f565b5b613253848285016131e8565b91505092915050565b5f6020828403121561327157613270612f2b565b5b5f61327e84828501612fac565b91505092915050565b5f81519050919050565b5f82825260208201905092915050565b8281835e5f83830152505050565b5f6132b982613287565b6132c38185613291565b93506132d38185602086016132a1565b6132dc816130e1565b840191505092915050565b5f6020820190508181035f8301526132ff81846132af565b905092915050565b5f67ffffffffffffffff821115613321576133206130f1565b5b602082029050602081019050919050565b5f5ffd5b5f61334861334384613307565b61314f565b9050808382526020820190506020840283018581111561336b5761336a613332565b5b835b8181101561339457806133808882612fac565b84526020840193505060208101905061336d565b5050509392505050565b5f82601f8301126133b2576133b16130d9565b5b81356133c2848260208601613336565b91505092915050565b5f67ffffffffffffffff8211156133e5576133e46130f1565b5b6133ee826130e1565b9050602081019050919050565b5f61340d613408846133cb565b61314f565b905082815260208101848484011115613429576134286130dd565b5b613434848285613199565b509392505050565b5f82601f8301126134505761344f6130d9565b5b81356134608482602086016133fb565b91505092915050565b5f5f5f5f5f60a0868803121561348257613481612f2b565b5b5f61348f88828901612f79565b95505060206134a088828901612f79565b945050604086013567ffffffffffffffff8111156134c1576134c0612f2f565b5b6134cd8882890161339e565b935050606086013567ffffffffffffffff8111156134ee576134ed612f2f565b5b6134fa8882890161339e565b925050608086013567ffffffffffffffff81111561351b5761351a612f2f565b5b6135278882890161343c565b9150509295509295909350565b5f67ffffffffffffffff82111561354e5761354d6130f1565b5b602082029050602081019050919050565b5f61357161356c84613534565b61314f565b9050808382526020820190506020840283018581111561359457613593613332565b5b835b818110156135bd57806135a98882612f79565b845260208401935050602081019050613596565b5050509392505050565b5f82601f8301126135db576135da6130d9565b5b81356135eb84826020860161355f565b91505092915050565b5f5f6040838503121561360a57613609612f2b565b5b5f83013567ffffffffffffffff81111561362757613626612f2f565b5b613633858286016135c7565b925050602083013567ffffffffffffffff81111561365457613653612f2f565b5b6136608582860161339e565b9150509250929050565b5f81519050919050565b5f82825260208201905092915050565b5f819050602082019050919050565b61369c81612f8d565b82525050565b5f6136ad8383613693565b60208301905092915050565b5f602082019050919050565b5f6136cf8261366a565b6136d98185613674565b93506136e483613684565b805f5b838110156137145781516136fb88826136a2565b9750613706836136b9565b9250506001810190506136e7565b5085935050505092915050565b5f6020820190508181035f83015261373981846136c5565b905092915050565b61374a81612f52565b82525050565b5f6020820190506137635f830184613741565b92915050565b613772816130a6565b811461377c575f5ffd5b50565b5f8135905061378d81613769565b92915050565b5f5f604083850312156137a9576137a8612f2b565b5b5f6137b685828601612f79565b92505060206137c78582860161377f565b9150509250929050565b5f5f5f5f5f5f5f5f610100898b0312156137ee576137ed612f2b565b5b5f6137fb8b828c01612f79565b985050602061380c8b828c01612fac565b975050604089013567ffffffffffffffff81111561382d5761382c612f2f565b5b6138398b828c016131e8565b965050606089013567ffffffffffffffff81111561385a57613859612f2f565b5b6138668b828c016131e8565b955050608089013567ffffffffffffffff81111561388757613886612f2f565b5b6138938b828c016131e8565b94505060a089013567ffffffffffffffff8111156138b4576138b3612f2f565b5b6138c08b828c016131e8565b93505060c06138d18b828c01612fac565b92505060e06138e28b828c01612fac565b9150509295985092959890939650565b5f67ffffffffffffffff82111561390c5761390b6130f1565b5b602082029050602081019050919050565b5f61392f61392a846138f2565b61314f565b9050808382526020820190506020840283018581111561395257613951613332565b5b835b8181101561399957803567ffffffffffffffff811115613977576139766130d9565b5b80860161398489826131e8565b85526020850194505050602081019050613954565b5050509392505050565b5f82601f8301126139b7576139b66130d9565b5b81356139c784826020860161391d565b91505092915050565b5f5f5f5f5f5f5f5f610100898b0312156139ed576139ec612f2b565b5b5f6139fa8b828c01612f79565b985050602089013567ffffffffffffffff811115613a1b57613a1a612f2f565b5b613a278b828c0161339e565b975050604089013567ffffffffffffffff811115613a4857613a47612f2f565b5b613a548b828c016139a3565b965050606089013567ffffffffffffffff811115613a7557613a74612f2f565b5b613a818b828c016139a3565b955050608089013567ffffffffffffffff811115613aa257613aa1612f2f565b5b613aae8b828c016139a3565b94505060a089013567ffffffffffffffff811115613acf57613ace612f2f565b5b613adb8b828c016139a3565b93505060c089013567ffffffffffffffff811115613afc57613afb612f2f565b5b613b088b828c0161339e565b92505060e089013567ffffffffffffffff811115613b2957613b28612f2f565b5b613b358b828c0161339e565b9150509295985092959890939650565b5f5f60408385031215613b5b57613b5a612f2b565b5b5f613b6885828601612f79565b9250506020613b7985828601612f79565b9150509250929050565b5f5f5f5f5f60a08688031215613b9c57613b9b612f2b565b5b5f613ba988828901612f79565b9550506020613bba88828901612f79565b9450506040613bcb88828901612fac565b9350506060613bdc88828901612fac565b925050608086013567ffffffffffffffff811115613bfd57613bfc612f2f565b5b613c098882890161343c565b9150509295509295909350565b5f60208284031215613c2b57613c2a612f2b565b5b5f613c3884828501612f79565b91505092915050565b5f60e0820190508181035f830152613c59818a6132af565b90508181036020830152613c6d81896132af565b90508181036040830152613c8181886132af565b90508181036060830152613c9581876132af565b9050613ca46080830186612ffe565b613cb160a0830185612ffe565b613cbe60c08301846130b1565b98975050505050505050565b5f82825260208201905092915050565b5f613ce482613287565b613cee8185613cca565b9350613cfe8185602086016132a1565b613d07816130e1565b840191505092915050565b613d1b816130a6565b82525050565b5f60e083015f8301518482035f860152613d3b8282613cda565b91505060208301518482036020860152613d558282613cda565b91505060408301518482036040860152613d6f8282613cda565b91505060608301518482036060860152613d898282613cda565b9150506080830151613d9e6080860182613693565b5060a0830151613db160a0860182613693565b5060c0830151613dc460c0860182613d12565b508091505092915050565b5f6040820190508181035f830152613de78185613d21565b9050613df660208301846130b1565b9392505050565b7f4e487b71000000000000000000000000000000000000000000000000000000005f52602260045260245ffd5b5f6002820490506001821680613e4157607f821691505b602082108103613e5457613e53613dfd565b5b50919050565b7f596f7520646f6e2774206f776e2074686973207469636b6574000000000000005f82015250565b5f613e8e601983613291565b9150613e9982613e5a565b602082019050919050565b5f6020820190508181035f830152613ebb81613e82565b9050919050565b7f5469636b657420616c72656164792075736564000000000000000000000000005f82015250565b5f613ef6601383613291565b9150613f0182613ec2565b602082019050919050565b5f6020820190508181035f830152613f2381613eea565b9050919050565b7f5469636b6574206973206e6f74206163746976650000000000000000000000005f82015250565b5f613f5e601483613291565b9150613f6982613f2a565b602082019050919050565b5f6020820190508181035f830152613f8b81613f52565b9050919050565b7f4e487b71000000000000000000000000000000000000000000000000000000005f52601160045260245ffd5b5f613fc982612f8d565b9150613fd483612f8d565b9250828201905080821115613fec57613feb613f92565b5b92915050565b7f4576656e742068617320656e64656400000000000000000000000000000000005f82015250565b5f614026600f83613291565b915061403182613ff2565b602082019050919050565b5f6020820190508181035f8301526140538161401a565b9050919050565b7f4e487b71000000000000000000000000000000000000000000000000000000005f52603260045260245ffd5b7f43616e6e6f74207472616e7366657220696e616374697665207469636b6574005f82015250565b5f6140bb601f83613291565b91506140c682614087565b602082019050919050565b5f6020820190508181035f8301526140e8816140af565b9050919050565b7f43616e6e6f74207472616e736665722075736564207469636b657400000000005f82015250565b5f614123601b83613291565b915061412e826140ef565b602082019050919050565b5f6020820190508181035f83015261415081614117565b9050919050565b5f60408201905061416a5f830185612ffe565b6141776020830184612ffe565b9392505050565b7f4576656e742064617465206d75737420626520696e20746865206675747572655f82015250565b5f6141b2602083613291565b91506141bd8261417e565b602082019050919050565b5f6020820190508181035f8301526141df816141a6565b9050919050565b7f4576656e74206e616d652063616e6e6f7420626520656d7074790000000000005f82015250565b5f61421a601a83613291565b9150614225826141e6565b602082019050919050565b5f6020820190508181035f8301526142478161420e565b9050919050565b7f53656374696f6e2063616e6e6f7420626520656d7074790000000000000000005f82015250565b5f614282601783613291565b915061428d8261424e565b602082019050919050565b5f6020820190508181035f8301526142af81614276565b9050919050565b7f526f772063616e6e6f7420626520656d707479000000000000000000000000005f82015250565b5f6142ea601383613291565b91506142f5826142b6565b602082019050919050565b5f6020820190508181035f830152614317816142de565b9050919050565b7f536561742063616e6e6f7420626520656d7074790000000000000000000000005f82015250565b5f614352601483613291565b915061435d8261431e565b602082019050919050565b5f6020820190508181035f83015261437f81614346565b9050919050565b5f819050815f5260205f209050919050565b5f6020601f8301049050919050565b5f82821b905092915050565b5f600883026143e27fffffffffffffffffffffffffffffffffffffffffffffffffffffffffffffffff826143a7565b6143ec86836143a7565b95508019841693508086168417925050509392505050565b5f819050919050565b5f61442761442261441d84612f8d565b614404565b612f8d565b9050919050565b5f819050919050565b6144408361440d565b61445461444c8261442e565b8484546143b3565b825550505050565b5f5f905090565b61446b61445c565b614476818484614437565b505050565b5b818110156144995761448e5f82614463565b60018101905061447c565b5050565b601f8211156144de576144af81614386565b6144b884614398565b810160208510156144c7578190505b6144db6144d385614398565b83018261447b565b50505b505050565b5f82821c905092915050565b5f6144fe5f19846008026144e3565b1980831691505092915050565b5f61451683836144ef565b9150826002028217905092915050565b61452f82613287565b67ffffffffffffffff811115614548576145476130f1565b5b6145528254613e2a565b61455d82828561449d565b5f60209050601f83116001811461458e575f841561457c578287015190505b614586858261450b565b8655506145ed565b601f19841661459c86614386565b5f5b828110156145c35784890151825560018201915060208501945060208101905061459e565b868310156145e057848901516145dc601f8916826144ef565b8355505b6001600288020188555050505b505050505050565b5f60c0820190508181035f83015261460d81896132af565b9050818103602083015261462181886132af565b9050818103604083015261463581876132af565b9050818103606083015261464981866132af565b90506146586080830185612ffe565b61466560a0830184612ffe565b979650505050505050565b5f61467a82612f8d565b91507fffffffffffffffffffffffffffffffffffffffffffffffffffffffffffffffff82036146ac576146ab613f92565b5b600182019050919050565b7f417272617973206c656e677468206d69736d61746368000000000000000000005f82015250565b5f6146eb601683613291565b91506146f6826146b7565b602082019050919050565b5f6020820190508181035f830152614718816146df565b9050919050565b5f6040820190506147325f830185613741565b61473f6020830184613741565b9392505050565b5f81519050919050565b5f82825260208201905092915050565b5f61476a82614746565b6147748185614750565b93506147848185602086016132a1565b61478d816130e1565b840191505092915050565b5f60a0820190506147ab5f830188613741565b6147b86020830187613741565b6147c56040830186612ffe565b6147d26060830185612ffe565b81810360808301526147e48184614760565b90509695505050505050565b5f815190506147fe81613051565b92915050565b5f6020828403121561481957614818612f2b565b5b5f614826848285016147f0565b91505092915050565b5f60a0820190506148425f830188613741565b61484f6020830187613741565b818103604083015261486181866136c5565b9050818103606083015261487581856136c5565b905081810360808301526148898184614760565b90509695505050505050565b5f6080820190506148a85f830187613741565b6148b56020830186612ffe565b6148c26040830185612ffe565b6148cf6060830184612ffe565b95945050505050565b5f6040820190508181035f8301526148f081856136c5565b9050818103602083015261490481846136c5565b9050939250505056fea2646970667358221220e517f089ff88fb14925703a2e9720b5b7fdabb010569f031e93e1a1c2606286f64736f6c634300081c0033",
  "linkReferences": {},
  "deployedLinkReferences": {},
  "immutableReferences": {},
  "inputSourceName": "project/contracts/token.sol",
  "buildInfoId": "solc-0_8_28-b19d847fdb791c7eb46f54edb154287715ac43ef"
}