{
  "_format": "hh3-artifact-1",
  "contractName": "TicketToken",
  "sourceName": "contracts/token.sol",
  "abi": [
    {
      "inputs": [
        {
          "internalType": "string",
          "name": "uri",
          "type": "string"
        },
        {
          "internalType": "address",
          "name": "initialOwner",
          "type": "address"
        }
      ],
      "stateMutability": "nonpayable",
      "type": "constructor"
    },
    {
      "inputs": [
        {
          "internalType": "address",
          "name": "sender",
          "type": "address"
        },
        {
          "internalType": "uint256",
          "name": "balance",
          "type": "uint256"
        },
        {
          "internalType": "uint256",
          "name": "needed",
          "type": "uint256"
        },
        {
          "internalType": "uint256",
          "name": "tokenId",
          "type": "uint256"
        }
      ],
      "name": "ERC1155InsufficientBalance",
      "type": "error"
    },
    {
      "inputs": [
        {
          "internalType": "address",
          "name": "approver",
          "type": "address"
        }
      ],
      "name": "ERC1155InvalidApprover",
      "type": "error"
    },
    {
      "inputs": [
        {
          "internalType": "uint256",
          "name": "idsLength",
          "type": "uint256"
        },
        {
          "internalType": "uint256",
          "name": "valuesLength",
          "type": "uint256"
        }
      ],
      "name": "ERC1155InvalidArrayLength",
      "type": "error"
    },
    {
      "inputs": [
        {
          "internalType": "address",
          "name": "operator",
          "type": "address"
        }
      ],
      "name": "ERC1155InvalidOperator",
      "type": "error"
    },
    {
      "inputs": [
        {
          "internalType": "address",
          "name": "receiver",
          "type": "address"
        }
      ],
      "name": "ERC1155InvalidReceiver",
      "type": "error"
    },
    {
      "inputs": [
        {
          "internalType": "address",
          "name": "sender",
          "type": "address"
        }
      ],
      "name": "ERC1155InvalidSender",
      "type": "error"
    },
    {
      "inputs": [
        {
          "internalType": "address",
          "name": "operator",
          "type": "address"
        },
        {
          "internalType": "address",
          "name": "owner",
          "type": "address"
        }
      ],
      "name": "ERC1155MissingApprovalForAll",
      "type": "error"
    },
    {
      "inputs": [
        {
          "internalType": "address",
          "name": "owner",
          "type": "address"
        }
      ],
      "name": "OwnableInvalidOwner",
      "type": "error"
    },
    {
      "inputs": [
        {
          "internalType": "address",
          "name": "account",
          "type": "address"
        }
      ],
      "name": "OwnableUnauthorizedAccount",
      "type": "error"
    },
    {
      "anonymous": false,
      "inputs": [
        {
          "indexed": true,
          "internalType": "address",
          "name": "account",
          "type": "address"
        },
        {
          "indexed": true,
          "internalType": "address",
          "name": "operator",
          "type": "address"
        },
        {
          "indexed": false,
          "internalType": "bool",
          "name": "approved",
          "type": "bool"
        }
      ],
      "name": "ApprovalForAll",
      "type": "event"
    },
    {
      "anonymous": false,
      "inputs": [
        {
          "indexed": true,
          "internalType": "address",
          "name": "previousOwner",
          "type": "address"
        },
        {
          "indexed": true,
          "internalType": "address",
          "name": "newOwner",
          "type": "address"
        }
      ],
      "name": "OwnershipTransferred",
      "type": "event"
    },
    {
      "anonymous": false,
      "inputs": [
        {
          "indexed": true,
          "internalType": "uint256",
          "name": "tokenId",
          "type": "uint256"
        },
        {
          "indexed": false,
          "internalType": "string",
          "name": "eventName",
          "type": "string"
        },
        {
          "indexed": false,
          "internalType": "string",
          "name": "section",
          "type": "string"
        },
        {
          "indexed": false,
          "internalType": "string",
          "name": "row",
          "type": "string"
        },
        {
          "indexed": false,
          "internalType": "string",
          "name": "seat",
          "type": "string"
        },
        {
          "indexed": false,
          "internalType": "uint256",
          "name": "eventDate",
          "type": "uint256"
        },
        {
          "indexed": false,
          "internalType": "uint256",
          "name": "price",
          "type": "uint256"
        }
      ],
      "name": "TicketCreated",
      "type": "event"
    },
    {
      "anonymous": false,
      "inputs": [
        {
          "indexed": true,
          "internalType": "uint256",
          "name": "tokenId",
          "type": "uint256"
        }
      ],
      "name": "TicketDeactivated",
      "type": "event"
    },
    {
      "anonymous": false,
      "inputs": [
        {
          "indexed": true,
          "internalType": "uint256",
          "name": "tokenId",
          "type": "uint256"
        },
        {
          "indexed": true,
          "internalType": "address",
          "name": "user",
          "type": "address"
        }
      ],
      "name": "TicketUsed",
      "type": "event"
    },
    {
      "anonymous": false,
      "inputs": [
        {
          "indexed": true,
          "internalType": "address",
          "name": "operator",
          "type": "address"
        },
        {
          "indexed": true,
          "internalType": "address",
          "name": "from",
          "type": "address"
        },
        {
          "indexed": true,
          "internalType": "address",
          "name": "to",
          "type": "address"
        },
        {
          "indexed": false,
          "internalType": "uint256[]",
          "name": "ids",
          "type": "uint256[]"
        },
        {
          "indexed": false,
          "internalType": "uint256[]",
          "name": "values",
          "type": "uint256[]"
        }
      ],
      "name": "TransferBatch",
      "type": "event"
    },
    {
      "anonymous": false,
      "inputs": [
        {
          "indexed": true,
          "internalType": "address",
          "name": "operator",
          "type": "address"
        },
        {
          "indexed": true,
          "internalType": "address",
          "name": "from",
          "type": "address"
        },
        {
          "indexed": true,
          "internalType": "address",
          "name": "to",
          "type": "address"
        },
        {
          "indexed": false,
          "internalType": "uint256",
          "name": "id",
          "type": "uint256"
        },
        {
          "indexed": false,
          "internalType": "uint256",
          "name": "value",
          "type": "uint256"
        }
      ],
      "name": "TransferSingle",
      "type": "event"
    },
    {
      "anonymous": false,
      "inputs": [
        {
          "indexed": false,
          "internalType": "string",
          "name": "value",
          "type": "string"
        },
        {
          "indexed": true,
          "internalType": "uint256",
          "name": "id",
          "type": "uint256"
        }
      ],
      "name": "URI",
      "type": "event"
    },
    {
      "inputs": [
        {
          "internalType": "address",
          "name": "account",
          "type": "address"
        },
        {
          "internalType": "uint256",
          "name": "id",
          "type": "uint256"
        }
      ],
      "name": "balanceOf",
      "outputs": [
        {
          "internalType": "uint256",
          "name": "",
          "type": "uint256"
        }
      ],
      "stateMutability": "view",
      "type": "function"
    },
    {
      "inputs": [
        {
          "internalType": "address[]",
          "name": "accounts",
          "type": "address[]"
        },
        {
          "internalType": "uint256[]",
          "name": "ids",
          "type": "uint256[]"
        }
      ],
      "name": "balanceOfBatch",
      "outputs": [
        {
          "internalType": "uint256[]",
          "name": "",
          "type": "uint256[]"
        }
      ],
      "stateMutability": "view",
      "type": "function"
    },
    {
      "inputs": [
        {
          "internalType": "address",
          "name": "to",
          "type": "address"
        },
        {
          "internalType": "uint256[]",
          "name": "amounts",
          "type": "uint256[]"
        },
        {
          "internalType": "string[]",
          "name": "eventNames",
          "type": "string[]"
        },
        {
          "internalType": "string[]",
          "name": "sections",
          "type": "string[]"
        },
        {
          "internalType": "string[]",
          "name": "rows",
          "type": "string[]"
        },
        {
          "internalType": "string[]",
          "name": "seats",
          "type": "string[]"
        },
        {
          "internalType": "uint256[]",
          "name": "eventDates",
          "type": "uint256[]"
        },
        {
          "internalType": "uint256[]",
          "name": "prices",
          "type": "uint256[]"
        }
      ],
      "name": "createBatchTickets",
      "outputs": [],
      "stateMutability": "nonpayable",
      "type": "function"
    },
    {
      "inputs": [
        {
          "internalType": "address",
          "name": "to",
          "type": "address"
        },
        {
          "internalType": "uint256",
          "name": "amount",
          "type": "uint256"
        },
        {
          "internalType": "string",
          "name": "eventName",
          "type": "string"
        },
        {
          "internalType": "string",
          "name": "section",
          "type": "string"
        },
        {
          "internalType": "string",
          "name": "row",
          "type": "string"
        },
        {
          "internalType": "string",
          "name": "seat",
          "type": "string"
        },
        {
          "internalType": "uint256",
          "name": "eventDate",
          "type": "uint256"
        },
        {
          "internalType": "uint256",
          "name": "price",
          "type": "uint256"
        }
      ],
      "name": "createTickets",
      "outputs": [],
      "stateMutability": "nonpayable",
      "type": "function"
    },
    {
      "inputs": [
        {
          "internalType": "uint256",
          "name": "tokenId",
          "type": "uint256"
        }
      ],
      "name": "deactivateTicket",
      "outputs": [],
      "stateMutability": "nonpayable",
      "type": "function"
    },
    {
      "inputs": [
        {
          "internalType": "uint256",
          "name": "id",
          "type": "uint256"
        }
      ],
      "name": "exists",
      "outputs": [
        {
          "internalType": "bool",
          "name": "",
          "type": "bool"
        }
      ],
      "stateMutability": "view",
      "type": "function"
    },
    {
      "inputs": [],
      "name": "getCurrentTokenId",
      "outputs": [
        {
          "internalType": "uint256",
          "name": "",
          "type": "uint256"
        }
      ],
      "stateMutability": "view",
      "type": "function"
    },
    {
      "inputs": [
        {
          "internalType": "uint256",
          "name": "tokenId",
          "type": "uint256"
        }
      ],
      "name": "getTicketInfo",
      "outputs": [
        {
          "components": [
            {
              "internalType": "string",
              "name": "eventName",
              "type": "string"
            },
            {
              "internalType": "string",
              "name": "section",
              "type": "string"
            },
            {
              "internalType": "string",
              "name": "row",
              "type": "string"
            },
            {
              "internalType": "string",
              "name": "seat",
              "type": "string"
            },
            {
              "internalType": "uint256",
              "name": "eventDate",
              "type": "uint256"
            },
            {
              "internalType": "uint256",
              "name": "price",
              "type": "uint256"
            },
            {
              "internalType": "bool",
              "name": "isActive",
              "type": "bool"
            }
          ],
          "internalType": "struct TicketToken.TicketInfo",
          "name": "ticket",
          "type": "tuple"
        },
        {
          "internalType": "bool",
          "name": "isUsed",
          "type": "bool"
        }
      ],
      "stateMutability": "view",
      "type": "function"
    },
    {
      "inputs": [
        {
          "internalType": "address",
          "name": "account",
          "type": "address"
        },
        {
          "internalType": "address",
          "name": "operator",
          "type": "address"
        }
      ],
      "name": "isApprovedForAll",
      "outputs": [
        {
          "internalType": "bool",
          "name": "",
          "type": "bool"
        }
      ],
      "stateMutability": "view",
      "type": "function"
    },
    {
      "inputs": [
        {
          "internalType": "uint256",
          "name": "tokenId",
          "type": "uint256"
        }
      ],
      "name": "isTicketValid",
      "outputs": [
        {
          "internalType": "bool",
          "name": "",
          "type": "bool"
        }
      ],
      "stateMutability": "view",
      "type": "function"
    },
    {
      "inputs": [],
      "name": "owner",
      "outputs": [
        {
          "internalType": "address",
          "name": "",
          "type": "address"
        }
      ],
      "stateMutability": "view",
      "type": "function"
    },
    {
      "inputs": [],
      "name": "renounceOwnership",
      "outputs": [],
      "stateMutability": "nonpayable",
      "type": "function"
    },
    {
      "inputs": [
        {
          "internalType": "address",
          "name": "from",
          "type": "address"
        },
        {
          "internalType": "address",
          "name": "to",
          "type": "address"
        },
        {
          "internalType": "uint256[]",
          "name": "ids",
          "type": "uint256[]"
        },
        {
          "internalType": "uint256[]",
          "name": "amounts",
          "type": "uint256[]"
        },
        {
          "internalType": "bytes",
          "name": "data",
          "type": "bytes"
        }
      ],
      "name": "safeBatchTransferFrom",
      "outputs": [],
      "stateMutability": "nonpayable",
      "type": "function"
    },
    {
      "inputs": [
        {
          "internalType": "address",
          "name": "from",
          "type": "address"
        },
        {
          "internalType": "address",
          "name": "to",
          "type": "address"
        },
        {
          "internalType": "uint256",
          "name": "id",
          "type": "uint256"
        },
        {
          "internalType": "uint256",
          "name": "amount",
          "type": "uint256"
        },
        {
          "internalType": "bytes",
          "name": "data",
          "type": "bytes"
        }
      ],
      "name": "safeTransferFrom",
      "outputs": [],
      "stateMutability": "nonpayable",
      "type": "function"
    },
    {
      "inputs": [
        {
          "internalType": "address",
          "name": "operator",
          "type": "address"
        },
        {
          "internalType": "bool",
          "name": "approved",
          "type": "bool"
        }
      ],
      "name": "setApprovalForAll",
      "outputs": [],
      "stateMutability": "nonpayable",
      "type": "function"
    },
    {
      "inputs": [
        {
          "internalType": "string",
          "name": "newuri",
          "type": "string"
        }
      ],
      "name": "setURI",
      "outputs": [],
      "stateMutability": "nonpayable",
      "type": "function"
    },
    {
      "inputs": [
        {
          "internalType": "bytes4",
          "name": "interfaceId",
          "type": "bytes4"
        }
      ],
      "name": "supportsInterface",
      "outputs": [
        {
          "internalType": "bool",
          "name": "",
          "type": "bool"
        }
      ],
      "stateMutability": "view",
      "type": "function"
    },
    {
      "inputs": [
        {
          "internalType": "uint256",
          "name": "",
          "type": "uint256"
        }
      ],
      "name": "ticketInfo",
      "outputs": [
        {
          "internalType": "string",
          "name": "eventName",
          "type": "string"
        },
        {
          "internalType": "string",
          "name": "section",
          "type": "string"
        },
        {
          "internalType": "string",
          "name": "row",
          "type": "string"
        },
        {
          "internalType": "string",
          "name": "seat",
          "type": "string"
        },
        {
          "internalType": "uint256",
          "name": "eventDate",
          "type": "uint256"
        },
        {
          "internalType": "uint256",
          "name": "price",
          "type": "uint256"
        },
        {
          "internalType": "bool",
          "name": "isActive",
          "type": "bool"
        }
      ],
      "stateMutability": "view",
      "type": "function"
    },
    {
      "inputs": [],
      "name": "totalSupply",
      "outputs": [
        {
          "internalType": "uint256",
          "name": "",
          "type": "uint256"
        }
      ],
      "stateMutability": "view",
      "type": "function"
    },
    {
      "inputs": [
        {
          "internalType": "uint256",
          "name": "id",
          "type": "uint256"
        }
      ],
      "name": "totalSupply",
      "outputs": [
        {
          "internalType": "uint256",
          "name": "",
          "type": "uint256"
        }
      ],
      "stateMutability": "view",
      "type": "function"
    },
    {
      "inputs": [
        {
          "internalType": "address",
          "name": "newOwner",
          "type": "address"
        }
      ],
      "name": "transferOwnership",
      "outputs": [],
      "stateMutability": "nonpayable",
      "type": "function"
    },
    {
      "inputs": [
        {
          "internalType": "uint256",
          "name": "",
          "type": "uint256"
        }
      ],
      "name": "uri",
      "outputs": [
        {
          "internalType": "string",
          "name": "",
          "type": "string"
        }
      ],
      "stateMutability": "view",
      "type": "function"
    },
    {
      "inputs": [
        {
          "internalType": "uint256",
          "name": "tokenId",
          "type": "uint256"
        }
      ],
      "name": "useTicket",
      "outputs": [],
      "stateMutability": "nonpayable",
      "type": "function"
    },
    {
      "inputs": [
        {
          "internalType": "uint256",
          "name": "",
          "type": "uint256"
        }
      ],
      "name": "usedTickets",
      "outputs": [
        {
          "internalType": "bool",
          "name": "",
          "type": "bool"
        }
      ],
      "stateMutability": "view",
      "type": "function"
    }
  ],
  "bytecode": "0x608060405234801561000f575f5ffd5b506040516130d13803806130d183398101604081905261002e9161010d565b80826100398161007d565b506001600160a01b03811661006757604051631e4fbdf760e01b81525f600482015260240160405180910390fd5b6100708161008d565b505060016008555061030c565b60026100898282610252565b5050565b600380546001600160a01b038381166001600160a01b0319831681179093556040519116919082907f8be0079c531659141344cd1fd0a4f28419497f9722a3daafe3b4186f6b6457e0905f90a35050565b634e487b7160e01b5f52604160045260245ffd5b80516001600160a01b0381168114610108575f5ffd5b919050565b5f5f6040838503121561011e575f5ffd5b82516001600160401b03811115610133575f5ffd5b8301601f81018513610143575f5ffd5b80516001600160401b0381111561015c5761015c6100de565b604051601f8201601f19908116603f011681016001600160401b038111828210171561018a5761018a6100de565b6040528181528282016020018710156101a1575f5ffd5b8160208401602083015e5f602083830101528094505050506101c5602084016100f2565b90509250929050565b600181811c908216806101e257607f821691505b60208210810361020057634e487b7160e01b5f52602260045260245ffd5b50919050565b601f82111561024d57805f5260205f20601f840160051c8101602085101561022b5750805b601f840160051c820191505b8181101561024a575f8155600101610237565b50505b505050565b81516001600160401b0381111561026b5761026b6100de565b61027f8161027984546101ce565b84610206565b6020601f8211600181146102b1575f831561029a5750848201515b5f19600385901b1c1916600184901b17845561024a565b5f84815260208120601f198516915b828110156102e057878501518255602094850194600190920191016102c0565b50848210156102fd57868401515f19600387901b60f8161c191681555b50505050600190811b01905550565b612db8806103195f395ff3fe608060405234801561000f575f5ffd5b5060043610610152575f3560e01c806371efdc21116100bf578063e985e9c511610079578063e985e9c5146102fb578063f242432a1461030e578063f2fde38b14610321578063fa71308314610334578063fb3ae56f1461035a578063ff99a0631461036d575f5ffd5b806371efdc21146102665780638da5cb5b14610288578063a22cb465146102a3578063bd85b039146102b6578063d45417eb146102d5578063deb28169146102e8575f5ffd5b8063266064481161011057806326606448146101ef5780632eb2c2d6146102025780634e1273f4146102155780634f558e79146102355780635618923614610256578063715018a61461025e575f5ffd5b8062fdd58e1461015657806301ffc9a71461017c57806302fe53051461019f5780630e89341c146101b457806318160ddd146101d457806319cabf0c146101dc575b5f5ffd5b610169610164366004612208565b61038e565b6040519081526020015b60405180910390f35b61018f61018a366004612245565b6103b5565b6040519015158152602001610173565b6101b26101ad366004612315565b610404565b005b6101c76101c236600461234e565b610418565b6040516101739190612393565b600554610169565b6101b26101ea36600461234e565b6104aa565b6101b26101fd36600461234e565b6104f6565b6101b2610210366004612431565b6106a3565b6102286102233660046124dd565b6107cb565b60405161017391906125d8565b61018f61024336600461234e565b5f90815260046020526040902054151590565b600854610169565b6101b2610895565b61018f61027436600461234e565b60076020525f908152604090205460ff1681565b6003546040516001600160a01b039091168152602001610173565b6101b26102b13660046125ea565b6108a8565b6101696102c436600461234e565b5f9081526004602052604090205490565b6101b26102e3366004612623565b6108b7565b6101b26102f6366004612782565b610b7c565b61018f6103093660046128c3565b611007565b6101b261031c3660046128f4565b611034565b6101b261032f366004612947565b611100565b61034761034236600461234e565b61113a565b6040516101739796959493929190612960565b61018f61036836600461234e565b611390565b61038061037b36600461234e565b611654565b6040516101739291906129ce565b5f818152602081815260408083206001600160a01b03861684529091529020545b92915050565b5f6001600160e01b03198216636cdb3d1360e11b14806103e557506001600160e01b031982166303a24d0760e21b145b806103af57506301ffc9a760e01b6001600160e01b03198316146103af565b61040c61192f565b6104158161195c565b50565b60606002805461042790612a79565b80601f016020809104026020016040519081016040528092919081815260200182805461045390612a79565b801561049e5780601f106104755761010080835404028352916020019161049e565b820191905f5260205f20905b81548152906001019060200180831161048157829003601f168201915b50505050509050919050565b6104b261192f565b5f818152600660208190526040808320909101805460ff191690555182917f76fc500933822fd6b96701f2eb7440a32da132e13442f434622b2836c72b494a91a250565b5f610501338361038e565b116105535760405162461bcd60e51b815260206004820152601960248201527f596f7520646f6e2774206f776e2074686973207469636b65740000000000000060448201526064015b60405180910390fd5b5f8181526007602052604090205460ff16156105a75760405162461bcd60e51b8152602060048201526013602482015272151a58dad95d08185b1c9958591e481d5cd959606a1b604482015260640161054a565b5f818152600660208190526040909120015460ff166105ff5760405162461bcd60e51b81526020600482015260146024820152735469636b6574206973206e6f742061637469766560601b604482015260640161054a565b5f8181526006602052604090206004015461061d9062015180612ac5565b42111561065e5760405162461bcd60e51b815260206004820152600f60248201526e115d995b9d081a185cc8195b991959608a1b604482015260640161054a565b5f81815260076020526040808220805460ff1916600117905551339183917f07c2221c844690cb15e32907258d38446cd4a17bc9b84e2069cd955615d547fd9190a350565b5f5b83518110156107b65760065f8583815181106106c3576106c3612ad8565b60209081029190910181015182528101919091526040015f206006015460ff1661072f5760405162461bcd60e51b815260206004820152601f60248201527f43616e6e6f74207472616e7366657220696e616374697665207469636b657400604482015260640161054a565b60075f85838151811061074457610744612ad8565b60209081029190910181015182528101919091526040015f205460ff16156107ae5760405162461bcd60e51b815260206004820152601b60248201527f43616e6e6f74207472616e736665722075736564207469636b65740000000000604482015260640161054a565b6001016106a5565b506107c48585858585611968565b5050505050565b606081518351146107fc5781518351604051635b05999160e01b81526004810192909252602482015260440161054a565b5f83516001600160401b0381111561081657610816612260565b60405190808252806020026020018201604052801561083f578160200160208202803683370190505b5090505f5b845181101561088d576020808202860101516108689060208084028701015161038e565b82828151811061087a5761087a612ad8565b6020908102919091010152600101610844565b509392505050565b61089d61192f565b6108a65f6119cf565b565b6108b3338383611a20565b5050565b6108bf61192f565b42821161090e5760405162461bcd60e51b815260206004820181905260248201527f4576656e742064617465206d75737420626520696e2074686520667574757265604482015260640161054a565b5f86511161095e5760405162461bcd60e51b815260206004820152601a60248201527f4576656e74206e616d652063616e6e6f7420626520656d707479000000000000604482015260640161054a565b5f8551116109ae5760405162461bcd60e51b815260206004820152601760248201527f53656374696f6e2063616e6e6f7420626520656d707479000000000000000000604482015260640161054a565b5f8451116109f45760405162461bcd60e51b8152602060048201526013602482015272526f772063616e6e6f7420626520656d70747960681b604482015260640161054a565b5f835111610a3b5760405162461bcd60e51b8152602060048201526014602482015273536561742063616e6e6f7420626520656d70747960601b604482015260640161054a565b6008546040805160e0810182528881526020808201899052818301889052606082018790526080820186905260a08201859052600160c08301525f84815260069091529190912081518190610a909082612b35565b5060208201516001820190610aa59082612b35565b5060408201516002820190610aba9082612b35565b5060608201516003820190610acf9082612b35565b506080820151600482015560a0820151600582015560c0909101516006909101805460ff191691151591909117905560408051602081019091525f8152610b1b908a9083908b90611ab4565b807fd6cba045acd18167e2417c4b3cc82b8d006c4f37e575c4fea101831d7c64d1c1888888888888604051610b5596959493929190612bef565b60405180910390a260088054905f610b6c83612c51565b9190505550505050505050505050565b610b8461192f565b8551875114610ba55760405162461bcd60e51b815260040161054a90612c69565b8451875114610bc65760405162461bcd60e51b815260040161054a90612c69565b8351875114610be75760405162461bcd60e51b815260040161054a90612c69565b8251875114610c085760405162461bcd60e51b815260040161054a90612c69565b8151875114610c295760405162461bcd60e51b815260040161054a90612c69565b8051875114610c4a5760405162461bcd60e51b815260040161054a90612c69565b5f87516001600160401b03811115610c6457610c64612260565b604051908082528060200260200182016040528015610c8d578160200160208202803683370190505b5090505f5b8851811015610fe15742848281518110610cae57610cae612ad8565b602002602001015111610d035760405162461bcd60e51b815260206004820181905260248201527f4576656e742064617465206d75737420626520696e2074686520667574757265604482015260640161054a565b5f888281518110610d1657610d16612ad8565b60200260200101515111610d6c5760405162461bcd60e51b815260206004820152601a60248201527f4576656e74206e616d652063616e6e6f7420626520656d707479000000000000604482015260640161054a565b600854828281518110610d8157610d81612ad8565b6020026020010181815250506040518060e00160405280898381518110610daa57610daa612ad8565b60200260200101518152602001888381518110610dc957610dc9612ad8565b60200260200101518152602001878381518110610de857610de8612ad8565b60200260200101518152602001868381518110610e0757610e07612ad8565b60200260200101518152602001858381518110610e2657610e26612ad8565b60200260200101518152602001848381518110610e4557610e45612ad8565b60209081029190910181015182526001918101919091526008545f90815260069091526040902081518190610e7a9082612b35565b5060208201516001820190610e8f9082612b35565b5060408201516002820190610ea49082612b35565b5060608201516003820190610eb99082612b35565b506080820151600482015560a0820151600582015560c0909101516006909101805460ff191691151591909117905560085488517fd6cba045acd18167e2417c4b3cc82b8d006c4f37e575c4fea101831d7c64d1c1908a9084908110610f2157610f21612ad8565b6020026020010151898481518110610f3b57610f3b612ad8565b6020026020010151898581518110610f5557610f55612ad8565b6020026020010151898681518110610f6f57610f6f612ad8565b6020026020010151898781518110610f8957610f89612ad8565b6020026020010151898881518110610fa357610fa3612ad8565b6020026020010151604051610fbd96959493929190612bef565b60405180910390a260088054905f610fd483612c51565b9091555050600101610c92565b50610ffc89828a60405180602001604052805f815250611b0f565b505050505050505050565b6001600160a01b039182165f90815260016020908152604080832093909416825291909152205460ff1690565b5f838152600660208190526040909120015460ff166110955760405162461bcd60e51b815260206004820152601f60248201527f43616e6e6f74207472616e7366657220696e616374697665207469636b657400604482015260640161054a565b5f8381526007602052604090205460ff16156110f35760405162461bcd60e51b815260206004820152601b60248201527f43616e6e6f74207472616e736665722075736564207469636b65740000000000604482015260640161054a565b6107c48585858585611b4b565b61110861192f565b6001600160a01b03811661113157604051631e4fbdf760e01b81525f600482015260240161054a565b610415816119cf565b60066020525f908152604090208054819061115490612a79565b80601f016020809104026020016040519081016040528092919081815260200182805461118090612a79565b80156111cb5780601f106111a2576101008083540402835291602001916111cb565b820191905f5260205f20905b8154815290600101906020018083116111ae57829003601f168201915b5050505050908060010180546111e090612a79565b80601f016020809104026020016040519081016040528092919081815260200182805461120c90612a79565b80156112575780601f1061122e57610100808354040283529160200191611257565b820191905f5260205f20905b81548152906001019060200180831161123a57829003601f168201915b50505050509080600201805461126c90612a79565b80601f016020809104026020016040519081016040528092919081815260200182805461129890612a79565b80156112e35780601f106112ba576101008083540402835291602001916112e3565b820191905f5260205f20905b8154815290600101906020018083116112c657829003601f168201915b5050505050908060030180546112f890612a79565b80601f016020809104026020016040519081016040528092919081815260200182805461132490612a79565b801561136f5780601f106113465761010080835404028352916020019161136f565b820191905f5260205f20905b81548152906001019060200180831161135257829003601f168201915b50505050600483015460058401546006909401549293909290915060ff1687565b5f81815260066020526040808220815160e08101909252805483929190829082906113ba90612a79565b80601f01602080910402602001604051908101604052809291908181526020018280546113e690612a79565b80156114315780601f1061140857610100808354040283529160200191611431565b820191905f5260205f20905b81548152906001019060200180831161141457829003601f168201915b5050505050815260200160018201805461144a90612a79565b80601f016020809104026020016040519081016040528092919081815260200182805461147690612a79565b80156114c15780601f10611498576101008083540402835291602001916114c1565b820191905f5260205f20905b8154815290600101906020018083116114a457829003601f168201915b505050505081526020016002820180546114da90612a79565b80601f016020809104026020016040519081016040528092919081815260200182805461150690612a79565b80156115515780601f1061152857610100808354040283529160200191611551565b820191905f5260205f20905b81548152906001019060200180831161153457829003601f168201915b5050505050815260200160038201805461156a90612a79565b80601f016020809104026020016040519081016040528092919081815260200182805461159690612a79565b80156115e15780601f106115b8576101008083540402835291602001916115e1565b820191905f5260205f20905b8154815290600101906020018083116115c457829003601f168201915b5050509183525050600482015460208201526005820154604082015260069091015460ff16151560609091015260c0810151909150801561163057505f8381526007602052604090205460ff16155b801561164d575060808101516116499062015180612ac5565b4211155b9392505050565b6116936040518060e00160405280606081526020016060815260200160608152602001606081526020015f81526020015f81526020015f151581525090565b5f82815260066020526040808220815160e081019092528054829082906116b990612a79565b80601f01602080910402602001604051908101604052809291908181526020018280546116e590612a79565b80156117305780601f1061170757610100808354040283529160200191611730565b820191905f5260205f20905b81548152906001019060200180831161171357829003601f168201915b5050505050815260200160018201805461174990612a79565b80601f016020809104026020016040519081016040528092919081815260200182805461177590612a79565b80156117c05780601f10611797576101008083540402835291602001916117c0565b820191905f5260205f20905b8154815290600101906020018083116117a357829003601f168201915b505050505081526020016002820180546117d990612a79565b80601f016020809104026020016040519081016040528092919081815260200182805461180590612a79565b80156118505780601f1061182757610100808354040283529160200191611850565b820191905f5260205f20905b81548152906001019060200180831161183357829003601f168201915b5050505050815260200160038201805461186990612a79565b80601f016020809104026020016040519081016040528092919081815260200182805461189590612a79565b80156118e05780601f106118b7576101008083540402835291602001916118e0565b820191905f5260205f20905b8154815290600101906020018083116118c357829003601f168201915b50505091835250506004820154602080830191909152600583015460408084019190915260069093015460ff90811615156060909301929092525f968752600790529420549094931692915050565b6003546001600160a01b031633146108a65760405163118cdaa760e01b815233600482015260240161054a565b60026108b38282612b35565b336001600160a01b038616811480159061198957506119878682611007565b155b156119ba5760405163711bec9160e11b81526001600160a01b0380831660048301528716602482015260440161054a565b6119c78686868686611baa565b505050505050565b600380546001600160a01b038381166001600160a01b0319831681179093556040519116919082907f8be0079c531659141344cd1fd0a4f28419497f9722a3daafe3b4186f6b6457e0905f90a35050565b6001600160a01b038216611a485760405162ced3e160e81b81525f600482015260240161054a565b6001600160a01b038381165f81815260016020908152604080832094871680845294825291829020805460ff191686151590811790915591519182527f17307eab39ab6107e8899845ad3d59bd9653f200f220920489ca2b5937696c31910160405180910390a3505050565b6001600160a01b038416611add57604051632bfa23e760e11b81525f600482015260240161054a565b604080516001808252602082018690528183019081526060820185905260808201909252906119c75f87848487611c04565b6001600160a01b038416611b3857604051632bfa23e760e11b81525f600482015260240161054a565b611b455f85858585611c04565b50505050565b336001600160a01b0386168114801590611b6c5750611b6a8682611007565b155b15611b9d5760405163711bec9160e11b81526001600160a01b0380831660048301528716602482015260440161054a565b6119c78686868686611c57565b6001600160a01b038416611bd357604051632bfa23e760e11b81525f600482015260240161054a565b6001600160a01b038516611bfb57604051626a0d4560e21b81525f600482015260240161054a565b6107c485858585855b611c1085858585611ce3565b6001600160a01b038416156107c45782513390600103611c495760208481015190840151611c42838989858589611cef565b50506119c7565b6119c7818787878787611e10565b6001600160a01b038416611c8057604051632bfa23e760e11b81525f600482015260240161054a565b6001600160a01b038516611ca857604051626a0d4560e21b81525f600482015260240161054a565b60408051600180825260208201869052818301908152606082018590526080820190925290611cda8787848487611c04565b50505050505050565b611b4584848484611ef7565b6001600160a01b0384163b156119c75760405163f23a6e6160e01b81526001600160a01b0385169063f23a6e6190611d339089908990889088908890600401612c99565b6020604051808303815f875af1925050508015611d6d575060408051601f3d908101601f19168201909252611d6a91810190612cdd565b60015b611dd4573d808015611d9a576040519150601f19603f3d011682016040523d82523d5f602084013e611d9f565b606091505b5080515f03611dcc57604051632bfa23e760e11b81526001600160a01b038616600482015260240161054a565b805160208201fd5b6001600160e01b0319811663f23a6e6160e01b14611cda57604051632bfa23e760e11b81526001600160a01b038616600482015260240161054a565b6001600160a01b0384163b156119c75760405163bc197c8160e01b81526001600160a01b0385169063bc197c8190611e549089908990889088908890600401612cf8565b6020604051808303815f875af1925050508015611e8e575060408051601f3d908101601f19168201909252611e8b91810190612cdd565b60015b611ebb573d808015611d9a576040519150601f19603f3d011682016040523d82523d5f602084013e611d9f565b6001600160e01b0319811663bc197c8160e01b14611cda57604051632bfa23e760e11b81526001600160a01b038616600482015260240161054a565b611f0384848484611fde565b6001600160a01b038416611f80575f805b8351811015611f675760208181028481018201519086018201515f908152600490925260408220805491928392611f4c908490612ac5565b90915550611f5c90508184612ac5565b925050600101611f14565b508060055f828254611f799190612ac5565b9091555050505b6001600160a01b038316611b45575f805b8351811015611fcd5760208181028481018201519086018201515f90815260049092526040909120805482900390559190910190600101611f91565b506005805491909103905550505050565b805182511461200d5781518151604051635b05999160e01b81526004810192909252602482015260440161054a565b335f5b835181101561210f576020818102858101820151908501909101516001600160a01b038816156120c1575f828152602081815260408083206001600160a01b038c1684529091529020548181101561209b576040516303dee4c560e01b81526001600160a01b038a16600482015260248101829052604481018390526064810184905260840161054a565b5f838152602081815260408083206001600160a01b038d16845290915290209082900390555b6001600160a01b03871615612105575f828152602081815260408083206001600160a01b038b168452909152812080548392906120ff908490612ac5565b90915550505b5050600101612010565b50825160010361218f5760208301515f906020840151909150856001600160a01b0316876001600160a01b0316846001600160a01b03167fc3d58168c5ae7397731d063d5bbf3d657854427343f4c083240f7aacaa2d0f628585604051612180929190918252602082015260400190565b60405180910390a450506107c4565b836001600160a01b0316856001600160a01b0316826001600160a01b03167f4a39dc06d4c0dbc64b70af90fd698a233a518aa5d07e595d983b8c0526c8f7fb86866040516121de929190612d55565b60405180910390a45050505050565b80356001600160a01b0381168114612203575f5ffd5b919050565b5f5f60408385031215612219575f5ffd5b612222836121ed565b946020939093013593505050565b6001600160e01b031981168114610415575f5ffd5b5f60208284031215612255575f5ffd5b813561164d81612230565b634e487b7160e01b5f52604160045260245ffd5b604051601f8201601f191681016001600160401b038111828210171561229c5761229c612260565b604052919050565b5f82601f8301126122b3575f5ffd5b8135602083015f5f6001600160401b038411156122d2576122d2612260565b50601f8301601f19166020016122e781612274565b9150508281528583830111156122fb575f5ffd5b828260208301375f92810160200192909252509392505050565b5f60208284031215612325575f5ffd5b81356001600160401b0381111561233a575f5ffd5b612346848285016122a4565b949350505050565b5f6020828403121561235e575f5ffd5b5035919050565b5f81518084528060208401602086015e5f602082860101526020601f19601f83011685010191505092915050565b602081525f61164d6020830184612365565b5f6001600160401b038211156123bd576123bd612260565b5060051b60200190565b5f82601f8301126123d6575f5ffd5b81356123e96123e4826123a5565b612274565b8082825260208201915060208360051b86010192508583111561240a575f5ffd5b602085015b8381101561242757803583526020928301920161240f565b5095945050505050565b5f5f5f5f5f60a08688031215612445575f5ffd5b61244e866121ed565b945061245c602087016121ed565b935060408601356001600160401b03811115612476575f5ffd5b612482888289016123c7565b93505060608601356001600160401b0381111561249d575f5ffd5b6124a9888289016123c7565b92505060808601356001600160401b038111156124c4575f5ffd5b6124d0888289016122a4565b9150509295509295909350565b5f5f604083850312156124ee575f5ffd5b82356001600160401b03811115612503575f5ffd5b8301601f81018513612513575f5ffd5b80356125216123e4826123a5565b8082825260208201915060208360051b850101925087831115612542575f5ffd5b6020840193505b8284101561256b5761255a846121ed565b825260209384019390910190612549565b945050505060208301356001600160401b03811115612588575f5ffd5b612594858286016123c7565b9150509250929050565b5f8151808452602084019350602083015f5b828110156125ce5781518652602095860195909101906001016125b0565b5093949350505050565b602081525f61164d602083018461259e565b5f5f604083850312156125fb575f5ffd5b612604836121ed565b915060208301358015158114612618575f5ffd5b809150509250929050565b5f5f5f5f5f5f5f5f610100898b03121561263b575f5ffd5b612644896121ed565b97506020890135965060408901356001600160401b03811115612665575f5ffd5b6126718b828c016122a4565b96505060608901356001600160401b0381111561268c575f5ffd5b6126988b828c016122a4565b95505060808901356001600160401b038111156126b3575f5ffd5b6126bf8b828c016122a4565b94505060a08901356001600160401b038111156126da575f5ffd5b6126e68b828c016122a4565b989b979a5095989497939693955050505060c08201359160e0013590565b5f82601f830112612713575f5ffd5b81356127216123e4826123a5565b8082825260208201915060208360051b860101925085831115612742575f5ffd5b602085015b838110156124275780356001600160401b03811115612764575f5ffd5b612773886020838a01016122a4565b84525060209283019201612747565b5f5f5f5f5f5f5f5f610100898b03121561279a575f5ffd5b6127a3896121ed565b975060208901356001600160401b038111156127bd575f5ffd5b6127c98b828c016123c7565b97505060408901356001600160401b038111156127e4575f5ffd5b6127f08b828c01612704565b96505060608901356001600160401b0381111561280b575f5ffd5b6128178b828c01612704565b95505060808901356001600160401b03811115612832575f5ffd5b61283e8b828c01612704565b94505060a08901356001600160401b03811115612859575f5ffd5b6128658b828c01612704565b93505060c08901356001600160401b03811115612880575f5ffd5b61288c8b828c016123c7565b92505060e08901356001600160401b038111156128a7575f5ffd5b6128b38b828c016123c7565b9150509295985092959890939650565b5f5f604083850312156128d4575f5ffd5b6128dd836121ed565b91506128eb602084016121ed565b90509250929050565b5f5f5f5f5f60a08688031215612908575f5ffd5b612911866121ed565b945061291f602087016121ed565b9350604086013592506060860135915060808601356001600160401b038111156124c4575f5ffd5b5f60208284031215612957575f5ffd5b61164d826121ed565b60e081525f61297260e083018a612365565b8281036020840152612984818a612365565b905082810360408401526129988189612365565b905082810360608401526129ac8188612365565b6080840196909652505060a0810192909252151560c090910152949350505050565b604081525f835160e060408401526129ea610120840182612365565b90506020850151603f19848303016060850152612a078282612365565b9150506040850151603f19848303016080850152612a258282612365565b9150506060850151603f198483030160a0850152612a438282612365565b915050608085015160c084015260a085015160e084015260c085015115156101008401528091505061164d602083018415159052565b600181811c90821680612a8d57607f821691505b602082108103612aab57634e487b7160e01b5f52602260045260245ffd5b50919050565b634e487b7160e01b5f52601160045260245ffd5b808201808211156103af576103af612ab1565b634e487b7160e01b5f52603260045260245ffd5b601f821115612b3057805f5260205f20601f840160051c81016020851015612b115750805b601f840160051c820191505b818110156107c4575f8155600101612b1d565b505050565b81516001600160401b03811115612b4e57612b4e612260565b612b6281612b5c8454612a79565b84612aec565b6020601f821160018114612b94575f8315612b7d5750848201515b5f19600385901b1c1916600184901b1784556107c4565b5f84815260208120601f198516915b82811015612bc35787850151825560209485019460019092019101612ba3565b5084821015612be057868401515f19600387901b60f8161c191681555b50505050600190811b01905550565b60c081525f612c0160c0830189612365565b8281036020840152612c138189612365565b90508281036040840152612c278188612365565b90508281036060840152612c3b8187612365565b6080840195909552505060a00152949350505050565b5f60018201612c6257612c62612ab1565b5060010190565b602080825260169082015275082e4e4c2f2e640d8cadccee8d040dad2e6dac2e8c6d60531b604082015260600190565b6001600160a01b03868116825285166020820152604081018490526060810183905260a0608082018190525f90612cd290830184612365565b979650505050505050565b5f60208284031215612ced575f5ffd5b815161164d81612230565b6001600160a01b0386811682528516602082015260a0604082018190525f90612d239083018661259e565b8281036060840152612d35818661259e565b90508281036080840152612d498185612365565b98975050505050505050565b604081525f612d67604083018561259e565b8281036020840152612d79818561259e565b9594505050505056fea2646970667358221220546fce2919c9529ddd58da9433d0e84be99022c1c8ca3c6bfc5fe93fb2d29e9064736f6c634300081c0033",
  "linkReferences": {},
  "deployedLinkReferences": {},
  "immutableReferences": {},
  "inputSourceName": "project/contracts/token.sol",
  "buildInfoId": "solc-0_8_28-59badacb5b53584ecbfd6de41a446d0e30ad3022"
}